{
  "contractName": "DateTime",
  "abi": [
    {
      "constant": true,
      "inputs": [
        {
          "name": "_time",
          "type": "uint256"
        },
        {
          "name": "dateStr",
          "type": "string"
        }
      ],
      "name": "comparingToTimeStamp",
      "outputs": [
        {
          "name": "",
          "type": "int256"
        }
      ],
      "payable": false,
      "stateMutability": "pure",
      "type": "function",
      "signature": "0x6f86c2b7"
    },
    {
      "constant": true,
      "inputs": [
        {
          "name": "dateStr1",
          "type": "string"
        },
        {
          "name": "dateStr2",
          "type": "string"
        }
      ],
      "name": "dateStringCompare",
      "outputs": [
        {
          "name": "",
          "type": "int256"
        }
      ],
      "payable": false,
      "stateMutability": "pure",
      "type": "function",
      "signature": "0x6eede8a3"
    },
    {
      "constant": true,
      "inputs": [
        {
          "name": "year",
          "type": "uint16"
        }
      ],
      "name": "isLeapYear",
      "outputs": [
        {
          "name": "",
          "type": "bool"
        }
      ],
      "payable": false,
      "stateMutability": "pure",
      "type": "function",
      "signature": "0xa6f0e577"
    },
    {
      "constant": true,
      "inputs": [
        {
          "name": "year",
          "type": "uint256"
        }
      ],
      "name": "leapYearsBefore",
      "outputs": [
        {
          "name": "",
          "type": "uint256"
        }
      ],
      "payable": false,
      "stateMutability": "pure",
      "type": "function",
      "signature": "0xb1999937"
    },
    {
      "constant": true,
      "inputs": [
        {
          "name": "month",
          "type": "uint8"
        },
        {
          "name": "year",
          "type": "uint16"
        }
      ],
      "name": "getDaysInMonth",
      "outputs": [
        {
          "name": "",
          "type": "uint8"
        }
      ],
      "payable": false,
      "stateMutability": "pure",
      "type": "function",
      "signature": "0xb238ad0e"
    },
    {
      "constant": true,
      "inputs": [
        {
          "name": "timestamp",
          "type": "uint256"
        }
      ],
      "name": "parseTimestamp",
      "outputs": [
        {
          "name": "year",
          "type": "uint16"
        },
        {
          "name": "month",
          "type": "uint8"
        },
        {
          "name": "day",
          "type": "uint8"
        },
        {
          "name": "hour",
          "type": "uint8"
        },
        {
          "name": "minute",
          "type": "uint8"
        },
        {
          "name": "second",
          "type": "uint256"
        },
        {
          "name": "weekday",
          "type": "uint256"
        }
      ],
      "payable": false,
      "stateMutability": "pure",
      "type": "function",
      "signature": "0xf97d0591"
    },
    {
      "constant": true,
      "inputs": [
        {
          "name": "timestamp",
          "type": "uint256"
        }
      ],
      "name": "getYear",
      "outputs": [
        {
          "name": "",
          "type": "uint16"
        }
      ],
      "payable": false,
      "stateMutability": "pure",
      "type": "function",
      "signature": "0x92d66313"
    },
    {
      "constant": true,
      "inputs": [
        {
          "name": "timestamp",
          "type": "uint256"
        }
      ],
      "name": "getMonth",
      "outputs": [
        {
          "name": "month",
          "type": "uint8"
        }
      ],
      "payable": false,
      "stateMutability": "pure",
      "type": "function",
      "signature": "0xa324ad24"
    },
    {
      "constant": true,
      "inputs": [
        {
          "name": "timestamp",
          "type": "uint256"
        }
      ],
      "name": "getDay",
      "outputs": [
        {
          "name": "day",
          "type": "uint8"
        }
      ],
      "payable": false,
      "stateMutability": "pure",
      "type": "function",
      "signature": "0x65c72840"
    },
    {
      "constant": true,
      "inputs": [
        {
          "name": "timestamp",
          "type": "uint256"
        }
      ],
      "name": "getHour",
      "outputs": [
        {
          "name": "hour",
          "type": "uint8"
        }
      ],
      "payable": false,
      "stateMutability": "pure",
      "type": "function",
      "signature": "0x3e239e1a"
    },
    {
      "constant": true,
      "inputs": [
        {
          "name": "timestamp",
          "type": "uint256"
        }
      ],
      "name": "getMinute",
      "outputs": [
        {
          "name": "",
          "type": "uint8"
        }
      ],
      "payable": false,
      "stateMutability": "pure",
      "type": "function",
      "signature": "0xfa93f883"
    },
    {
      "constant": true,
      "inputs": [
        {
          "name": "timestamp",
          "type": "uint256"
        }
      ],
      "name": "getSecond",
      "outputs": [
        {
          "name": "",
          "type": "uint8"
        }
      ],
      "payable": false,
      "stateMutability": "pure",
      "type": "function",
      "signature": "0x8aa001fc"
    },
    {
      "constant": true,
      "inputs": [
        {
          "name": "timestamp",
          "type": "uint256"
        }
      ],
      "name": "getWeekday",
      "outputs": [
        {
          "name": "",
          "type": "uint8"
        }
      ],
      "payable": false,
      "stateMutability": "pure",
      "type": "function",
      "signature": "0x4ac1ad78"
    },
    {
      "constant": true,
      "inputs": [
        {
          "name": "year",
          "type": "uint16"
        },
        {
          "name": "month",
          "type": "uint8"
        },
        {
          "name": "day",
          "type": "uint8"
        },
        {
          "name": "hour",
          "type": "uint8"
        },
        {
          "name": "minute",
          "type": "uint8"
        },
        {
          "name": "second",
          "type": "uint8"
        }
      ],
      "name": "toTimestamp",
      "outputs": [
        {
          "name": "timestamp",
          "type": "uint256"
        }
      ],
      "payable": false,
      "stateMutability": "pure",
      "type": "function",
      "signature": "0x9054bdec"
    },
    {
      "constant": true,
      "inputs": [
        {
          "name": "year",
          "type": "uint16"
        },
        {
          "name": "month",
          "type": "uint8"
        },
        {
          "name": "day",
          "type": "uint8"
        },
        {
          "name": "hour",
          "type": "uint8"
        }
      ],
      "name": "toTimestamp",
      "outputs": [
        {
          "name": "timestamp",
          "type": "uint256"
        }
      ],
      "payable": false,
      "stateMutability": "pure",
      "type": "function",
      "signature": "0x7f791833"
    },
    {
      "constant": true,
      "inputs": [
        {
          "name": "year",
          "type": "uint16"
        },
        {
          "name": "month",
          "type": "uint8"
        },
        {
          "name": "day",
          "type": "uint8"
        },
        {
          "name": "hour",
          "type": "uint8"
        },
        {
          "name": "minute",
          "type": "uint8"
        }
      ],
      "name": "toTimestamp",
      "outputs": [
        {
          "name": "timestamp",
          "type": "uint256"
        }
      ],
      "payable": false,
      "stateMutability": "pure",
      "type": "function",
      "signature": "0x62ba9687"
    },
    {
      "constant": true,
      "inputs": [
        {
          "name": "year",
          "type": "uint16"
        },
        {
          "name": "month",
          "type": "uint8"
        },
        {
          "name": "day",
          "type": "uint8"
        }
      ],
      "name": "toTimestamp",
      "outputs": [
        {
          "name": "timestamp",
          "type": "uint256"
        }
      ],
      "payable": false,
      "stateMutability": "pure",
      "type": "function",
      "signature": "0x8c8d98a0"
    }
  ],
  "bytecode": "0x611278610030600b82828239805160001a6073146000811461002057610022565bfe5b5030600052607381538281f3fe7300000000000000000000000000000000000000003014608060405260043610610108576000357c0100000000000000000000000000000000000000000000000000000000900463ffffffff1680633e239e1a1461010d5780634ac1ad781461015557806362ba96871461019d57806365c72840146102175780636eede8a31461025f5780636f86c2b7146103c55780637f7918331461049e5780638aa001fc1461050b5780638c8d98a0146105535780639054bdec146105b357806392d663131461063a578063a324ad2414610684578063a6f0e577146106cc578063b199993714610716578063b238ad0e14610758578063f97d0591146107b1578063fa93f8831461083d575b600080fd5b6101396004803603602081101561012357600080fd5b8101908080359060200190929190505050610885565b604051808260ff1660ff16815260200191505060405180910390f35b6101816004803603602081101561016b57600080fd5b81019080803590602001909291905050506108b2565b604051808260ff1660ff16815260200191505060405180910390f35b610201600480360360a08110156101b357600080fd5b81019080803561ffff169060200190929190803560ff169060200190929190803560ff169060200190929190803560ff169060200190929190803560ff1690602001909291905050506108d9565b6040518082815260200191505060405180910390f35b6102436004803603602081101561022d57600080fd5b81019080803590602001909291905050506108f5565b604051808260ff1660ff16815260200191505060405180910390f35b6103af6004803603604081101561027557600080fd5b810190808035906020019064010000000081111561029257600080fd5b8201836020820111156102a457600080fd5b803590602001918460018302840111640100000000831117156102c657600080fd5b91908080601f016020809104026020016040519081016040528093929190818152602001838380828437600081840152601f19601f8201169050808301925050505050505091929192908035906020019064010000000081111561032957600080fd5b82018360208201111561033b57600080fd5b8035906020019184600183028401116401000000008311171561035d57600080fd5b91908080601f016020809104026020016040519081016040528093929190818152602001838380828437600081840152601f19601f820116905080830192505050505050509192919290505050610912565b6040518082815260200191505060405180910390f35b610488600480360360408110156103db57600080fd5b81019080803590602001909291908035906020019064010000000081111561040257600080fd5b82018360208201111561041457600080fd5b8035906020019184600183028401116401000000008311171561043657600080fd5b91908080601f016020809104026020016040519081016040528093929190818152602001838380828437600081840152601f19601f8201169050808301925050505050505091929192905050506109db565b6040518082815260200191505060405180910390f35b6104f5600480360360808110156104b457600080fd5b81019080803561ffff169060200190929190803560ff169060200190929190803560ff169060200190929190803560ff169060200190929190505050610a66565b6040518082815260200191505060405180910390f35b6105376004803603602081101561052157600080fd5b8101908080359060200190929190505050610a81565b604051808260ff1660ff16815260200191505060405180910390f35b61059d6004803603606081101561056957600080fd5b81019080803561ffff169060200190929190803560ff169060200190929190803560ff169060200190929190505050610a97565b6040518082815260200191505060405180910390f35b610624600480360360c08110156105c957600080fd5b81019080803561ffff169060200190929190803560ff169060200190929190803560ff169060200190929190803560ff169060200190929190803560ff169060200190929190803560ff169060200190929190505050610ab2565b6040518082815260200191505060405180910390f35b6106666004803603602081101561065057600080fd5b8101908080359060200190929190505050610d59565b604051808261ffff1661ffff16815260200191505060405180910390f35b6106b06004803603602081101561069a57600080fd5b8101908080359060200190929190505050610e04565b604051808260ff1660ff16815260200191505060405180910390f35b6106fc600480360360208110156106e257600080fd5b81019080803561ffff169060200190929190505050610e21565b604051808215151515815260200191505060405180910390f35b6107426004803603602081101561072c57600080fd5b8101908080359060200190929190505050610ea2565b6040518082815260200191505060405180910390f35b6107956004803603604081101561076e57600080fd5b81019080803560ff169060200190929190803561ffff169060200190929190505050610ec9565b604051808260ff1660ff16815260200191505060405180910390f35b6107dd600480360360208110156107c757600080fd5b8101908080359060200190929190505050610f48565b604051808861ffff1661ffff1681526020018760ff1660ff1681526020018660ff1660ff1681526020018560ff1660ff1681526020018460ff1660ff16815260200183815260200182815260200197505050505050505060405180910390f35b6108696004803603602081101561085357600080fd5b8101908080359060200190929190505050611079565b604051808260ff1660ff16815260200191505060405180910390f35b60006018603c808481151561089657fe5b048115156108a057fe5b048115156108aa57fe5b069050919050565b60006007600462015180848115156108c657fe5b04018115156108d157fe5b069050919050565b60006108ea86868686866000610ab2565b905095945050505050565b60008061090183610f48565b505050509250505080915050919050565b6000806000806000806109248861109a565b94509450945094509450600080600080600061093f8c61109a565b9450945094509450945060006109588b8b8b8b8b6108d9565b9050600061096987878787876108d9565b9050808211156109885760019c505050505050505050505050506109d5565b808210156109c4577fffffffffffffffffffffffffffffffffffffffffffffffffffffffffffffffff9c505050505050505050505050506109d5565b60009c505050505050505050505050505b92915050565b6000806000806000806109ed8761109a565b945094509450945094506000610a0686868686866108d9565b905080891115610a1f5760019650505050505050610a60565b80891015610a55577fffffffffffffffffffffffffffffffffffffffffffffffffffffffffffffffff9650505050505050610a60565b600096505050505050505b92915050565b6000610a7785858585600080610ab2565b9050949350505050565b6000603c82811515610a8f57fe5b069050919050565b6000610aa98484846000806000610ab2565b90509392505050565b6000806107b290505b8761ffff168161ffff161015610afe57610ad481610e21565b15610ae7576301e2850082019150610af1565b6301e13380820191505b8080600101915050610abb565b610b06611228565b601f816000600c81101515610b1757fe5b602002019060ff16908160ff1681525050610b3189610e21565b15610b5d57601d816001600c81101515610b4757fe5b602002019060ff16908160ff1681525050610b80565b601c816001600c81101515610b6e57fe5b602002019060ff16908160ff16815250505b601f816002600c81101515610b9157fe5b602002019060ff16908160ff1681525050601e816003600c81101515610bb357fe5b602002019060ff16908160ff1681525050601f816004600c81101515610bd557fe5b602002019060ff16908160ff1681525050601e816005600c81101515610bf757fe5b602002019060ff16908160ff1681525050601f816006600c81101515610c1957fe5b602002019060ff16908160ff1681525050601f816007600c81101515610c3b57fe5b602002019060ff16908160ff1681525050601e816008600c81101515610c5d57fe5b602002019060ff16908160ff1681525050601f816009600c81101515610c7f57fe5b602002019060ff16908160ff1681525050601e81600a600c81101515610ca157fe5b602002019060ff16908160ff1681525050601f81600b600c81101515610cc357fe5b602002019060ff16908160ff1681525050600191505b8760ff168261ffff161015610d1b57806001830361ffff16600c81101515610cfd57fe5b602002015160ff166201518002830192508180600101925050610cd9565b6001870360ff166201518002830192508560ff16610e1002830192508460ff16603c02830192508360ff168301925082925050509695505050505050565b600080600090506000806301e1338085811515610d7257fe5b046107b261ffff16019150610d8c6107b261ffff16610ea2565b610d998361ffff16610ea2565b039050806301e285000283019250806107b2830361ffff16036301e1338002830192505b84831115610df957610dd160018303610e21565b15610de4576301e2850083039250610dee565b6301e13380830392505b600182039150610dbd565b819350505050919050565b600080610e1083610f48565b505050505091505080915050919050565b60008060048361ffff16811515610e3457fe5b0661ffff16141515610e495760009050610e9d565b600060648361ffff16811515610e5b57fe5b0661ffff16141515610e705760019050610e9d565b60006101908361ffff16811515610e8357fe5b0661ffff16141515610e985760009050610e9d565b600190505b919050565b60008060009050600183039250610190830460648404600485040301905080915050919050565b6000806000905060028460ff161415610efe57610ee583610e21565b15610ef457601d915050610f42565b601c915050610f42565b6000600485148117905060068514811790506009851481179050600b8514811790506001811415610f2e57601e91505b6000811415610f3c57601f91505b50809150505b92915050565b60008060008060008060008060009050600080610f648b610d59565b9950610f756107b261ffff16610ea2565b610f828b61ffff16610ea2565b039150816301e285000283019250816107b28b0361ffff16036301e1338002830192506000600191505b600c8260ff16111515610ff157610fc3828c610ec9565b60ff16620151800290508b8482011115610fdf57819950610ff1565b80840193508180600101925050610fac565b600191505b6110008a8c610ec9565b60ff168260ff16111515611038578b846201518001111561102357819850611038565b62015180840193508180600101925050610ff6565b6110418c610885565b975061104c8c611079565b96506110578c610a81565b60ff1695506110658c6108b2565b60ff16945050505050919395979092949650565b6000603c808381151561108857fe5b0481151561109257fe5b069050919050565b600080600080600080600080600080600060208c01518c515b60048310156110d757600a88029750603082841a03880197506001830192506110b3565b61270f8811156110e657600080fd5b6001830192505b6000602d83851a14141561111657600a87029650603082841a03870196506001830192506110ed565b600c87111561112457600080fd5b6001830192505b808310602f83851a11603a84861a1016161561115c57600a86029550603082841a038601955060018301925061112b565b601f86111561116a57600080fd5b808310156111ab576001830192505b808310603a83851a10602f84861a111616156111aa57600a85029450603082841a0385019450600183019250611179565b5b60188511156111b957600080fd5b808310156111fa576001830192505b808310603a83851a10602f84861a111616156111f957600a84029350603082841a03840193506001830192506111c8565b5b603b84111561120857600080fd5b879c50869b50859a50849950839850505050505050505091939590929450565b61018060405190810160405280600c9060208202803883398082019150509050509056fea165627a7a723058206351f40c4452440bf351d58f0f376a7cab84ab5ef250c471214f6458bd91d9770029",
  "source": "library DateTime {\n        /*\n         *  Date and Time utilities for ethereum contracts\n         *\n         */\n        struct _DateTime {\n                uint16 year;\n                uint8 month;\n                uint8 day;\n                uint8 hour;\n                uint8 minute;\n                uint8 second;\n                uint8 weekday;\n        }\n\n        uint constant DAY_IN_SECONDS = 86400;\n        uint constant YEAR_IN_SECONDS = 31536000;\n        uint constant LEAP_YEAR_IN_SECONDS = 31622400;\n\n        uint constant HOUR_IN_SECONDS = 3600;\n        uint constant MINUTE_IN_SECONDS = 60;\n\n        uint16 constant ORIGIN_YEAR = 1970;\n        function uintToDateString(uint date) internal pure returns(string memory addr) {\n           uint year = (date & 0xffff0000) >> 16;\n           uint month = (date & 0x0000ff00) >> 8;\n           uint day = date & 0x000000ff;\n           require(year <= 9999 && month <= 12 && month > 0 && day > 0 && day <= 31);\n           assembly{\n               addr := mload(0x40)\n               let ptr := add(addr,35)\n               let sIdx := ptr\n               for {\n                   let v := 0\n               } gt(year,0) {\n               } {\n                   v := mod(year,10)\n                   v := mod(year,10)\n                   year := div(year,10)\n                   mstore8(sIdx,add(v,0x30))\n                   sIdx := sub(sIdx,1)\n               }\n               ptr := add(ptr,1)\n               mstore8(ptr,45)\n               ptr := add(ptr,1)\n               if gt(month,9) {ptr := add(ptr,1)}\n               sIdx := ptr\n               for {\n                   let v:= 0\n               } gt(month,0) {\n               }{\n                   v := mod(month,10)\n                   month := div(month,10)\n                   mstore8(sIdx,add(v,0x30))\n                   sIdx := sub(sIdx,1)\n               }\n               ptr := add(ptr,1)\n               mstore8(ptr,45)\n               ptr :=add(ptr,1)\n               if gt(day,9) {ptr := add(ptr,1)}\n               sIdx := ptr\n               for {\n                   let v:= 0\n               } gt(day,0) {}{\n                   v:= mod(day,10)\n                   day := div(day,10)\n                   mstore8(sIdx,add(v,0x30))\n                   sIdx := sub(sIdx,1)\n               }\n               mstore(addr,sub(sub(ptr,addr),31))\n               ptr := add(ptr,1)\n               mstore(0x40,ptr)\n           }\n      }\n        function comparingToTimeStamp(uint _time,string memory dateStr) public pure returns(int){\n            (uint16 year,uint8 month,uint8 day,uint8 hour,uint8 minute) = stringToDateTime(dateStr);\n            uint _time2 = toTimestamp(year,month,day,hour,minute);\n            if(_time > _time2)\n                return 1;\n            if(_time < _time2)\n                return -1;\n            return 0;\n        }\n        function dateStringCompare(string memory dateStr1,string memory dateStr2) public pure returns (int){\n            (uint16 year,uint8 month,uint8 day,uint8 hour,uint8 minute) = stringToDateTime(dateStr1);\n            (uint16 year2,uint8 month2,uint8 day2,uint8 hour2,uint8 minute2) = stringToDateTime(dateStr2);\n            uint _time = toTimestamp(year,month,day,hour,minute);\n            uint _time2 = toTimestamp(year2,month2,day2,hour2,minute2);\n            if(_time > _time2)\n                return 1;\n            if(_time < _time2)\n                return -1;\n            return 0;\n        }\n        function memcpy(uint src, uint dest, uint len) private pure {\n                // Copy word-length chunks while possible\n                for(; len >= 32; len -= 32) {\n                    assembly {\n                        mstore(dest, mload(src))\n                    }\n                    dest += 32;\n                    src += 32;\n                }\n\n                // Copy remaining bytes\n                uint mask = 256 ** (32 - len) - 1;\n                assembly {\n                    let srcpart := and(mload(src), not(mask))\n                    let destpart := and(mload(dest), mask)\n                    mstore(dest, or(destpart, srcpart))\n                }\n        }\n        function stringToDateTime(string memory dateStr) internal pure returns (uint16 year,\n        uint8 month,uint8 day,uint8 hour,uint8 minute){\n                    assembly{\n                        let _year := 0\n                        let _month := 0\n                        let _date := 0\n                        let _hour := 0\n                        let _minute := 0\n                        let _ptr := 0\n                        let _bytes := mload(add(dateStr,32))\n                        let _len := mload(dateStr)\n                        for {\n                        } lt(_ptr, 4) {\n                            _ptr := add(_ptr, 1)\n                        } {\n                            _year := mul(_year,10)\n                            _year := add(_year,sub(byte(_ptr,_bytes),0x30))\n                        }\n                        if gt(_year,9999) {revert(0,0)}\n                        for {\n                            _ptr := add(_ptr,1)\n                        } eq(eq(byte(_ptr,_bytes),45),0) {\n                            _ptr := add(_ptr, 1)\n                        } {\n                            _month := mul(_month,10)\n                            _month := add(_month,sub(byte(_ptr,_bytes),0x30))\n                        }\n                        if gt(_month,12) {revert(0,0)}\n                        for{\n                            _ptr := add(_ptr,1)\n                        } and(and(lt(byte(_ptr,_bytes),0x3a),gt(byte(_ptr,_bytes),0x2f)),lt(_ptr,_len)) {\n                            _ptr := add(_ptr,1)\n                        }\n                        {\n                            _date := mul(_date,10)\n                            _date := add(_date,sub(byte(_ptr,_bytes),0x30))\n                        }\n                        if gt(_date,31) {revert(0,0)}\n                        if lt(_ptr,_len) {\n                            for {\n                                _ptr := add(_ptr,1)\n                            } and(and(gt(byte(_ptr,_bytes),0x2f),lt(byte(_ptr,_bytes),0x3a)),lt(_ptr,_len)) {\n                                _ptr := add(_ptr,1)\n                            }{\n                                _hour := mul(_hour,10)\n                                _hour := add(_hour,sub(byte(_ptr,_bytes),0x30))\n                            }\n                        }\n                        if gt(_hour,24) {revert(0,0)}\n                        if lt(_ptr,_len) {\n                           for {\n                                _ptr := add(_ptr,1)\n                           } and(and(gt(byte(_ptr,_bytes),0x2f),lt(byte(_ptr,_bytes),0x3a)),lt(_ptr,_len)) {\n                                _ptr := add(_ptr,1)\n                           } {\n                                _minute := mul(_minute,10)\n                                _minute := add(_minute,sub(byte(_ptr,_bytes),0x30))\n                           }\n                        }\n                        if gt(_minute,59) {revert(0,0)}\n                        year := _year\n                        month := _month\n                        day := _date\n                        hour := _hour\n                        minute := _minute\n                    }\n        }\n        function isLeapYear(uint16 year) public pure returns (bool) {\n                if (year % 4 != 0) {\n                        return false;\n                }\n                if (year % 100 != 0) {\n                        return true;\n                }\n                if (year % 400 != 0) {\n                        return false;\n                }\n                return true;\n        }\n        function leapYearsBefore(uint year) public pure returns (uint) {\n            uint result = 0;\n                assembly{\n                    year := sub(year,1)\n                    result := add(sub(div(year,4),div(year,100)),div(year,400))\n                }\n            return result;\n        }\n        function getDaysInMonth(uint8 month, uint16 year) public pure returns (uint8) {\n                uint8 result = 0;\n                if(month == 2){\n                    if(isLeapYear(year))\n                        return 29;\n                    else\n                        return 28;\n                } else {\n                    assembly{\n                        let cond_1 := 0\n                        cond_1 := or(cond_1,eq(month,4))\n                        cond_1 := or(cond_1,eq(month,6))\n                        cond_1 := or(cond_1,eq(month,9))\n                        cond_1 := or(cond_1,eq(month,11))\n                        if eq(cond_1,1) {\n                            result := 30\n                        }\n                        if eq(cond_1,0) {\n                            result := 31\n                        }\n                    }\n                    return result;\n                }\n        }\n        function parseTimestamp(uint timestamp) public pure returns (uint16 year,uint8 month,\n        uint8 day,uint8 hour,uint8 minute,\n        uint second,uint weekday) {\n                uint secondsAccountedFor = 0;\n                uint buf;\n                uint8 i;\n\n                // Year\n                year = getYear(timestamp);\n                buf = leapYearsBefore(year) - leapYearsBefore(ORIGIN_YEAR);\n\n                secondsAccountedFor += LEAP_YEAR_IN_SECONDS * buf;\n                secondsAccountedFor += YEAR_IN_SECONDS * (year - ORIGIN_YEAR - buf);\n\n                // Month\n                uint secondsInMonth;\n                for (i = 1; i <= 12; i++) {\n                        secondsInMonth = DAY_IN_SECONDS * getDaysInMonth(i, year);\n                        if (secondsInMonth + secondsAccountedFor > timestamp) {\n                                month = i;\n                                break;\n                        }\n                        secondsAccountedFor += secondsInMonth;\n                }\n\n                // Day\n                for (i = 1; i <= getDaysInMonth(month, year); i++) {\n                        if (DAY_IN_SECONDS + secondsAccountedFor > timestamp) {\n                                day = i;\n                                break;\n                        }\n                        secondsAccountedFor += DAY_IN_SECONDS;\n                }\n\n                // Hour\n                hour = getHour(timestamp);\n\n                // Minute\n                minute = getMinute(timestamp);\n\n                // Second\n                second = getSecond(timestamp);\n\n                // Day of week.\n                weekday = getWeekday(timestamp);\n        }\n\n        function getYear(uint timestamp) public pure returns (uint16) {\n                uint secondsAccountedFor = 0;\n                uint16 year;\n                uint numLeapYears;\n\n                // Year\n                year = uint16(ORIGIN_YEAR + timestamp / YEAR_IN_SECONDS);\n                numLeapYears = leapYearsBefore(year) - leapYearsBefore(ORIGIN_YEAR);\n\n                secondsAccountedFor += LEAP_YEAR_IN_SECONDS * numLeapYears;\n                secondsAccountedFor += YEAR_IN_SECONDS * (year - ORIGIN_YEAR - numLeapYears);\n\n                while (secondsAccountedFor > timestamp) {\n                        if (isLeapYear(uint16(year - 1))) {\n                                secondsAccountedFor -= LEAP_YEAR_IN_SECONDS;\n                        }\n                        else {\n                                secondsAccountedFor -= YEAR_IN_SECONDS;\n                        }\n                        year -= 1;\n                }\n                return year;\n        }\n\n        function getMonth(uint timestamp) public pure returns (uint8 month) {\n            (,uint8 _month,,,,,) = parseTimestamp(timestamp);\n            month = _month;\n        }\n\n        function getDay(uint timestamp) public pure returns (uint8 day) {\n            (,,uint8 _day,,,,) = parseTimestamp(timestamp);\n            day = _day;\n        }\n\n        function getHour(uint timestamp) public pure returns (uint8 hour) {\n                return uint8((timestamp / 60 / 60) % 24);\n        }\n\n        function getMinute(uint timestamp) public pure returns (uint8) {\n                return uint8((timestamp / 60) % 60);\n        }\n\n        function getSecond(uint timestamp) public pure returns (uint8) {\n                return uint8(timestamp % 60);\n        }\n\n        function getWeekday(uint timestamp) public pure returns (uint8) {\n                return uint8((timestamp / DAY_IN_SECONDS + 4) % 7);\n        }\n\n        function toTimestamp(uint16 year, uint8 month, uint8 day) public pure returns (uint timestamp) {\n                return toTimestamp(year, month, day, 0, 0, 0);\n        }\n\n        function toTimestamp(uint16 year, uint8 month, uint8 day, uint8 hour) public pure returns (uint timestamp) {\n                return toTimestamp(year, month, day, hour, 0, 0);\n        }\n\n        function toTimestamp(uint16 year, uint8 month, uint8 day, uint8 hour, uint8 minute) public pure returns (uint timestamp) {\n                return toTimestamp(year, month, day, hour, minute, 0);\n        }\n\n        function toTimestamp(uint16 year, uint8 month, uint8 day, uint8 hour, uint8 minute, uint8 second) public pure returns (uint timestamp) {\n                uint16 i;\n\n                // Year\n                for (i = ORIGIN_YEAR; i < year; i++) {\n                        if (isLeapYear(i)) {\n                                timestamp += LEAP_YEAR_IN_SECONDS;\n                        }\n                        else {\n                                timestamp += YEAR_IN_SECONDS;\n                        }\n                }\n\n                // Month\n                uint8[12] memory monthDayCounts;\n                monthDayCounts[0] = 31;\n                if (isLeapYear(year)) {\n                        monthDayCounts[1] = 29;\n                }\n                else {\n                        monthDayCounts[1] = 28;\n                }\n                monthDayCounts[2] = 31;\n                monthDayCounts[3] = 30;\n                monthDayCounts[4] = 31;\n                monthDayCounts[5] = 30;\n                monthDayCounts[6] = 31;\n                monthDayCounts[7] = 31;\n                monthDayCounts[8] = 30;\n                monthDayCounts[9] = 31;\n                monthDayCounts[10] = 30;\n                monthDayCounts[11] = 31;\n\n                for (i = 1; i < month; i++) {\n                        timestamp += DAY_IN_SECONDS * monthDayCounts[i - 1];\n                }\n\n                // Day\n                timestamp += DAY_IN_SECONDS * (day - 1);\n\n                // Hour\n                timestamp += HOUR_IN_SECONDS * (hour);\n\n                // Minute\n                timestamp += MINUTE_IN_SECONDS * (minute);\n\n                // Second\n                timestamp += second;\n\n                return timestamp;\n        }\n}",
  "sourcePath": "/Users/liwei/Desktop/GitRepository/insurance/contracts/library/DateTime.sol",
  "compiler": {
    "name": "solc",
    "version": "0.5.0+commit.1d4f565a.Emscripten.clang"
  },
  "schemaVersion": "3.0.2",
  "updatedAt": "2019-03-18T23:33:21.344Z",
  "devdoc": {
    "methods": {}
  },
  "userdoc": {
    "methods": {}
  }
}