{
  "contractName": "FlightTest",
  "abi": [
    {
      "constant": true,
      "inputs": [],
      "name": "unClaimedAmount",
      "outputs": [
        {
          "name": "",
          "type": "uint256"
        }
      ],
      "payable": false,
      "stateMutability": "view",
      "type": "function",
      "signature": "0x22c53fb9"
    },
    {
      "constant": true,
      "inputs": [],
      "name": "priceLimit_Low",
      "outputs": [
        {
          "name": "",
          "type": "uint256"
        }
      ],
      "payable": false,
      "stateMutability": "view",
      "type": "function",
      "signature": "0x3856e954"
    },
    {
      "constant": true,
      "inputs": [],
      "name": "priceLimit_High",
      "outputs": [
        {
          "name": "",
          "type": "uint256"
        }
      ],
      "payable": false,
      "stateMutability": "view",
      "type": "function",
      "signature": "0x4af629f3"
    },
    {
      "constant": true,
      "inputs": [],
      "name": "balanceOffset",
      "outputs": [
        {
          "name": "",
          "type": "uint256"
        }
      ],
      "payable": false,
      "stateMutability": "view",
      "type": "function",
      "signature": "0x767198c2"
    },
    {
      "inputs": [],
      "payable": true,
      "stateMutability": "payable",
      "type": "constructor",
      "signature": "constructor"
    },
    {
      "payable": true,
      "stateMutability": "payable",
      "type": "fallback"
    },
    {
      "anonymous": false,
      "inputs": [
        {
          "indexed": false,
          "name": "sender",
          "type": "address"
        },
        {
          "indexed": false,
          "name": "flightNo",
          "type": "string"
        },
        {
          "indexed": false,
          "name": "result",
          "type": "string"
        }
      ],
      "name": "LogCheckValid",
      "type": "event",
      "signature": "0x759f31c436337ded0528d779bc5670e1cee655a312cb47e473cbaf457a16b26b"
    },
    {
      "anonymous": false,
      "inputs": [
        {
          "indexed": false,
          "name": "",
          "type": "string"
        },
        {
          "indexed": false,
          "name": "",
          "type": "string"
        }
      ],
      "name": "LogString",
      "type": "event",
      "signature": "0x27a8767ed172b48d7cf6dbb25d2840c5fa91ef78fa6e05c13c82763d099f03ca"
    },
    {
      "anonymous": false,
      "inputs": [
        {
          "indexed": false,
          "name": "",
          "type": "string"
        },
        {
          "indexed": false,
          "name": "",
          "type": "bytes32"
        }
      ],
      "name": "LogBytes32",
      "type": "event",
      "signature": "0x02d93529bba9d141e5e06733c52c7e6fbcb1149586adb5c24064b522ab26f1d7"
    },
    {
      "anonymous": false,
      "inputs": [
        {
          "indexed": false,
          "name": "isSuccess",
          "type": "bool"
        },
        {
          "indexed": false,
          "name": "order_id",
          "type": "bytes32"
        },
        {
          "indexed": false,
          "name": "message",
          "type": "string"
        },
        {
          "indexed": false,
          "name": "user",
          "type": "address"
        },
        {
          "indexed": false,
          "name": "amount",
          "type": "uint256"
        }
      ],
      "name": "LogCompensation",
      "type": "event",
      "signature": "0x5cd26d687928c0b558f2b3b5b4ff78d5d330be3c935581bc581c70001181a845"
    },
    {
      "anonymous": false,
      "inputs": [
        {
          "indexed": false,
          "name": "order_id",
          "type": "bytes32"
        },
        {
          "indexed": false,
          "name": "flightNo",
          "type": "string"
        },
        {
          "indexed": false,
          "name": "expectedDepatureDate",
          "type": "string"
        },
        {
          "indexed": false,
          "name": "user",
          "type": "address"
        },
        {
          "indexed": false,
          "name": "paidAmt",
          "type": "uint256"
        }
      ],
      "name": "LogOrderCreated",
      "type": "event",
      "signature": "0x75c6ed0620e6c7da199f70d7203beef4aa52811d055c65022414289ad4374a62"
    },
    {
      "anonymous": false,
      "inputs": [
        {
          "indexed": false,
          "name": "isSuccess",
          "type": "bool"
        },
        {
          "indexed": false,
          "name": "flightNo",
          "type": "string"
        },
        {
          "indexed": false,
          "name": "expectedDepatureDate",
          "type": "string"
        },
        {
          "indexed": false,
          "name": "expectedArriveDate",
          "type": "uint256"
        },
        {
          "indexed": false,
          "name": "actArriveDate",
          "type": "uint256"
        }
      ],
      "name": "LogFlightStatusUpdate",
      "type": "event",
      "signature": "0xd84bced00336476e4b29351921987c0a6b6e1ccda40fd01a78a54dce95358e55"
    },
    {
      "constant": false,
      "inputs": [
        {
          "name": "contractAddr",
          "type": "address"
        }
      ],
      "name": "setHolderContract",
      "outputs": [],
      "payable": false,
      "stateMutability": "nonpayable",
      "type": "function",
      "signature": "0x035d45ef"
    },
    {
      "constant": false,
      "inputs": [],
      "name": "donate",
      "outputs": [
        {
          "name": "",
          "type": "bool"
        }
      ],
      "payable": true,
      "stateMutability": "payable",
      "type": "function",
      "signature": "0xed88c68e"
    },
    {
      "constant": false,
      "inputs": [
        {
          "name": "to",
          "type": "address"
        },
        {
          "name": "token",
          "type": "uint256"
        }
      ],
      "name": "transferShareHolder",
      "outputs": [
        {
          "name": "",
          "type": "bool"
        }
      ],
      "payable": false,
      "stateMutability": "nonpayable",
      "type": "function",
      "signature": "0x2759c783"
    },
    {
      "constant": false,
      "inputs": [
        {
          "name": "flightNo",
          "type": "string"
        }
      ],
      "name": "checkValidFlight",
      "outputs": [],
      "payable": true,
      "stateMutability": "payable",
      "type": "function",
      "signature": "0xa9b643c0"
    },
    {
      "constant": false,
      "inputs": [
        {
          "name": "flightNo",
          "type": "string"
        },
        {
          "name": "expDate",
          "type": "uint256"
        }
      ],
      "name": "insure",
      "outputs": [],
      "payable": true,
      "stateMutability": "payable",
      "type": "function",
      "signature": "0x4d0e12e8"
    },
    {
      "constant": true,
      "inputs": [],
      "name": "getShareholderContractAddr",
      "outputs": [
        {
          "name": "",
          "type": "address"
        }
      ],
      "payable": false,
      "stateMutability": "view",
      "type": "function",
      "signature": "0x8286df26"
    },
    {
      "constant": true,
      "inputs": [],
      "name": "getContractBalance",
      "outputs": [
        {
          "name": "",
          "type": "uint256"
        }
      ],
      "payable": false,
      "stateMutability": "view",
      "type": "function",
      "signature": "0x6f9fb98a"
    },
    {
      "constant": true,
      "inputs": [],
      "name": "getContractProfit",
      "outputs": [
        {
          "name": "",
          "type": "uint256"
        }
      ],
      "payable": false,
      "stateMutability": "view",
      "type": "function",
      "signature": "0xf319e31b"
    },
    {
      "constant": true,
      "inputs": [],
      "name": "getMyAccountInfo",
      "outputs": [
        {
          "name": "balance",
          "type": "uint256"
        },
        {
          "name": "order_ids",
          "type": "bytes32[]"
        }
      ],
      "payable": false,
      "stateMutability": "view",
      "type": "function",
      "signature": "0x252cc62e"
    },
    {
      "constant": true,
      "inputs": [
        {
          "name": "id",
          "type": "bytes32"
        }
      ],
      "name": "getOrderInfo",
      "outputs": [
        {
          "name": "payoutAmount",
          "type": "uint256"
        },
        {
          "name": "user",
          "type": "address"
        },
        {
          "name": "flightNo",
          "type": "string"
        },
        {
          "name": "isDone",
          "type": "bool"
        },
        {
          "name": "expectedDepatureDate",
          "type": "string"
        },
        {
          "name": "compensateValue",
          "type": "uint256"
        }
      ],
      "payable": false,
      "stateMutability": "view",
      "type": "function",
      "signature": "0x768c6ec0"
    },
    {
      "constant": true,
      "inputs": [
        {
          "name": "flightNo",
          "type": "string"
        },
        {
          "name": "flightDate",
          "type": "string"
        }
      ],
      "name": "getFlightStatus",
      "outputs": [
        {
          "name": "expectedArriveDate",
          "type": "uint256"
        },
        {
          "name": "actArriveDate",
          "type": "uint256"
        },
        {
          "name": "checked",
          "type": "bool"
        },
        {
          "name": "delaySeconds",
          "type": "uint256"
        }
      ],
      "payable": false,
      "stateMutability": "view",
      "type": "function",
      "signature": "0x26ec641e"
    },
    {
      "constant": false,
      "inputs": [
        {
          "name": "amount",
          "type": "uint256"
        }
      ],
      "name": "withDrawBalance",
      "outputs": [
        {
          "name": "",
          "type": "bool"
        }
      ],
      "payable": false,
      "stateMutability": "nonpayable",
      "type": "function",
      "signature": "0x6ba9a40b"
    },
    {
      "constant": false,
      "inputs": [],
      "name": "dividend",
      "outputs": [
        {
          "name": "",
          "type": "bool"
        }
      ],
      "payable": false,
      "stateMutability": "nonpayable",
      "type": "function",
      "signature": "0x0ff8cf9b"
    },
    {
      "constant": true,
      "inputs": [],
      "name": "getDividendLen",
      "outputs": [
        {
          "name": "",
          "type": "uint256"
        }
      ],
      "payable": false,
      "stateMutability": "view",
      "type": "function",
      "signature": "0x76c4af73"
    },
    {
      "constant": true,
      "inputs": [
        {
          "name": "i",
          "type": "uint256"
        }
      ],
      "name": "getDividendHistory",
      "outputs": [
        {
          "name": "profit",
          "type": "uint256"
        },
        {
          "name": "timestamp",
          "type": "uint256"
        },
        {
          "name": "year",
          "type": "uint256"
        },
        {
          "name": "triggerAddr",
          "type": "address"
        }
      ],
      "payable": false,
      "stateMutability": "view",
      "type": "function",
      "signature": "0x0ecaebae"
    },
    {
      "constant": false,
      "inputs": [
        {
          "name": "order_id",
          "type": "bytes32"
        }
      ],
      "name": "claimCompensation",
      "outputs": [
        {
          "name": "",
          "type": "bool"
        }
      ],
      "payable": false,
      "stateMutability": "nonpayable",
      "type": "function",
      "signature": "0xc0f0d760"
    },
    {
      "constant": false,
      "inputs": [
        {
          "name": "order_id",
          "type": "bytes32"
        }
      ],
      "name": "requestUpdate",
      "outputs": [
        {
          "name": "",
          "type": "bool"
        }
      ],
      "payable": true,
      "stateMutability": "payable",
      "type": "function",
      "signature": "0x057dc241"
    },
    {
      "constant": false,
      "inputs": [
        {
          "name": "_myid",
          "type": "bytes32"
        },
        {
          "name": "_result",
          "type": "string"
        },
        {
          "name": "_proof",
          "type": "bytes"
        }
      ],
      "name": "__callback",
      "outputs": [],
      "payable": false,
      "stateMutability": "nonpayable",
      "type": "function",
      "signature": "0x38bbfa50"
    },
    {
      "constant": false,
      "inputs": [
        {
          "name": "myid",
          "type": "bytes32"
        },
        {
          "name": "result",
          "type": "string"
        }
      ],
      "name": "__callback",
      "outputs": [],
      "payable": false,
      "stateMutability": "nonpayable",
      "type": "function",
      "signature": "0x27dc297e"
    }
  ],
  "bytecode": "0x608060405266b1a2bc2ec50000600755678ac7230489e8000060085533600560006101000a81548173ffffffffffffffffffffffffffffffffffffffff021916908373ffffffffffffffffffffffffffffffffffffffff160217905550736f485c8bf6fc43ea212e93bbf8ce046c7f1cb475600160006101000a81548173ffffffffffffffffffffffffffffffffffffffff021916908373ffffffffffffffffffffffffffffffffffffffff160217905550615e56806100c06000396000f3fe608060405260043610610133576000357c0100000000000000000000000000000000000000000000000000000000900463ffffffff168063035d45ef14610135578063057dc2411461015e5780630ecaebae1461018e5780630ff8cf9b146101ce57806322c53fb9146101f9578063252cc62e1461022457806326ec641e146102505780632759c7831461029057806327dc297e146102cd5780633856e954146102f657806338bbfa50146103215780634af629f31461034a5780634d0e12e8146103755780636ba9a40b146103915780636f9fb98a146103ce578063767198c2146103f9578063768c6ec01461042457806376c4af73146104665780638286df2614610491578063a9b643c0146104bc578063c0f0d760146104d8578063ed88c68e14610515578063f319e31b14610533575b005b34801561014157600080fd5b5061015c60048036036101579190810190614e30565b61055e565b005b61017860048036036101739190810190614ebe565b61065b565b60405161018591906156e3565b60405180910390f35b34801561019a57600080fd5b506101b560048036036101b091908101906151ab565b610e96565b6040516101c59493929190615b82565b60405180910390f35b3480156101da57600080fd5b506101e3610f4f565b6040516101f091906156e3565b60405180910390f35b34801561020557600080fd5b5061020e6113bb565b60405161021b9190615a0f565b60405180910390f35b34801561023057600080fd5b506102396113c1565b604051610247929190615ab4565b60405180910390f35b34801561025c57600080fd5b506102776004803603610272919081019061504d565b6114a1565b6040516102879493929190615b3d565b60405180910390f35b34801561029c57600080fd5b506102b760048036036102b29190810190614e59565b61160b565b6040516102c491906156e3565b60405180910390f35b3480156102d957600080fd5b506102f460048036036102ef9190810190614f10565b6116e2565b005b34801561030257600080fd5b5061030b61258f565b6040516103189190615a0f565b60405180910390f35b34801561032d57600080fd5b5061034860048036036103439190810190614f64565b612595565b005b34801561035657600080fd5b5061035f61259a565b60405161036c9190615a0f565b60405180910390f35b61038f600480360361038a91908101906150b9565b6125a0565b005b34801561039d57600080fd5b506103b860048036036103b391908101906151ab565b6126cb565b6040516103c591906156e3565b60405180910390f35b3480156103da57600080fd5b506103e3612841565b6040516103f09190615a0f565b60405180910390f35b34801561040557600080fd5b5061040e612860565b60405161041b9190615a0f565b60405180910390f35b34801561043057600080fd5b5061044b60048036036104469190810190614ebe565b612866565b60405161045d96959493929190615a45565b60405180910390f35b34801561047257600080fd5b5061047b612a6d565b6040516104889190615a0f565b60405180910390f35b34801561049d57600080fd5b506104a6612a7a565b6040516104b39190615608565b60405180910390f35b6104d660048036036104d1919081019061500c565b612aa4565b005b3480156104e457600080fd5b506104ff60048036036104fa9190810190614ebe565b612d1e565b60405161050c91906156e3565b60405180910390f35b61051d61343f565b60405161052a91906156e3565b60405180910390f35b34801561053f57600080fd5b50610548613511565b6040516105559190615a0f565b60405180910390f35b600073ffffffffffffffffffffffffffffffffffffffff16600660009054906101000a900473ffffffffffffffffffffffffffffffffffffffff1673ffffffffffffffffffffffffffffffffffffffff161415156105bb57600080fd5b600560009054906101000a900473ffffffffffffffffffffffffffffffffffffffff1673ffffffffffffffffffffffffffffffffffffffff163373ffffffffffffffffffffffffffffffffffffffff1614151561061757600080fd5b80600660006101000a81548173ffffffffffffffffffffffffffffffffffffffff021916908373ffffffffffffffffffffffffffffffffffffffff16021790555050565b6000661c6bf52634000034101515156106a9576040517f08c379a00000000000000000000000000000000000000000000000000000000081526004016106a09061591c565b60405180910390fd5b6106b1614a1a565b6009600084815260200190815260200160002060c06040519081016040529081600082015481526020016001820160009054906101000a900473ffffffffffffffffffffffffffffffffffffffff1673ffffffffffffffffffffffffffffffffffffffff1673ffffffffffffffffffffffffffffffffffffffff168152602001600282018054600181600116156101000203166002900480601f0160208091040260200160405190810160405280929190818152602001828054600181600116156101000203166002900480156107c95780601f1061079e576101008083540402835291602001916107c9565b820191906000526020600020905b8154815290600101906020018083116107ac57829003601f168201915b505050505081526020016003820160009054906101000a900460ff16151515158152602001600482018054600181600116156101000203166002900480601f0160208091040260200160405190810160405280929190818152602001828054600181600116156101000203166002900480156108865780601f1061085b57610100808354040283529160200191610886565b820191906000526020600020905b81548152906001019060200180831161086957829003601f168201915b505050505081526020016005820154815250509050600b81604001516040518082805190602001908083835b6020831015156108d757805182526020820191506020810190506020830392506108b2565b6001836020036101000a038019825116818451168082178552505050505050905001915050908152602001604051809103902081608001516040518082805190602001908083835b602083101515610944578051825260208201915060208101905060208303925061091f565b6001836020036101000a038019825116818451168082178552505050505050905001915050908152602001604051809103902060020160009054906101000a900460ff1615610997576001915050610e91565b6060610abf6109a98360800151613594565b610ab1610aac6109ed6040805190810160405280600381526020017f292e220000000000000000000000000000000000000000000000000000000000815250613594565b610a9e610a99610a008960400151613594565b610a8b608060405190810160405280604881526020017f6a736f6e2868747470733a2f2f666c69676874732e63747269702e636f6d2f7081526020017f726f636573732f616a61782f486973746f727950756e637475616c6974793f4681526020017f6c696768744e6f3d000000000000000000000000000000000000000000000000815250613594565b6135c290919063ffffffff16565b613594565b6135c290919063ffffffff16565b613594565b6135c290919063ffffffff16565b90506000610b5d6040805190810160405280600381526020017f55524c0000000000000000000000000000000000000000000000000000000000815250610b54610b3d6040805190810160405280601481526020017f222e466c6967687441727274696d655265616479000000000000000000000000815250613594565b610b4686613594565b6135c290919063ffffffff16565b62030d40613644565b90506000610bfb6040805190810160405280600381526020017f55524c0000000000000000000000000000000000000000000000000000000000815250610bf2610bdb6040805190810160405280600f81526020017f222e466c6967687441727274696d650000000000000000000000000000000000815250613594565b610be487613594565b6135c290919063ffffffff16565b62030d40613644565b905060c06040519081016040528060016002811115610c1657fe5b81526020016020604051908101604052806000815250815260200160206040519081016040528060008152508152602001600073ffffffffffffffffffffffffffffffffffffffff1681526020016000815260200187815250600a600084815260200190815260200160002060008201518160000160006101000a81548160ff02191690836002811115610ca657fe5b02179055506020820151816001019080519060200190610cc7929190614a69565b506040820151816002019080519060200190610ce4929190614a69565b5060608201518160030160006101000a81548173ffffffffffffffffffffffffffffffffffffffff021916908373ffffffffffffffffffffffffffffffffffffffff1602179055506080820151816004015560a0820151816005015590505060c060405190810160405280600280811115610d5b57fe5b81526020016020604051908101604052806000815250815260200160206040519081016040528060008152508152602001600073ffffffffffffffffffffffffffffffffffffffff1681526020016000815260200187815250600a600083815260200190815260200160002060008201518160000160006101000a81548160ff02191690836002811115610deb57fe5b02179055506020820151816001019080519060200190610e0c929190614a69565b506040820151816002019080519060200190610e29929190614a69565b5060608201518160030160006101000a81548173ffffffffffffffffffffffffffffffffffffffff021916908373ffffffffffffffffffffffffffffffffffffffff1602179055506080820151816004015560a0820151816005015590505060019450505050505b919050565b600080600080600d85815481101515610eab57fe5b9060005260206000209060040201600001549350600d85815481101515610ece57fe5b9060005260206000209060040201600101549250600d85815481101515610ef157fe5b9060005260206000209060040201600201549150600d85815481101515610f1457fe5b906000526020600020906004020160030160009054906101000a900473ffffffffffffffffffffffffffffffffffffffff1690509193509193565b600080600073__DateTime______________________________63f97d0591426040518263ffffffff167c0100000000000000000000000000000000000000000000000000000000028152600401610fa79190615a2a565b60e06040518083038186803b158015610fbf57600080fd5b505af4158015610fd3573d6000803e3d6000fd5b505050506040513d601f19601f82011682018060405250610ff7919081019061510d565b5050505050915091506000600d80549050148061103f57508161ffff16600d6001600d805490500381548110151561102b57fe5b906000526020600020906004020160020154105b801561104e5750600c8160ff16145b151561105957600080fd5b6000600660009054906101000a900473ffffffffffffffffffffffffffffffffffffffff1673ffffffffffffffffffffffffffffffffffffffff16631d9b8009336040518263ffffffff167c01000000000000000000000000000000000000000000000000000000000281526004016110d29190615623565b60206040518083038186803b1580156110ea57600080fd5b505afa1580156110fe573d6000803e3d6000fd5b505050506040513d601f19601f8201168201806040525061112291908101906151d4565b905060008111151561113357600080fd5b3073ffffffffffffffffffffffffffffffffffffffff1631601054600a6009600f540281151561115f57fe5b040110156113b157600060056004601054600a6009600f540281151561118157fe5b043073ffffffffffffffffffffffffffffffffffffffff16310303028115156111a657fe5b049050600d6080604051908101604052808381526020014281526020018661ffff1681526020013373ffffffffffffffffffffffffffffffffffffffff168152509080600181540180825580915050906001820390600052602060002090600402016000909192909190915060008201518160000155602082015181600101556040820151816002015560608201518160030160006101000a81548173ffffffffffffffffffffffffffffffffffffffff021916908373ffffffffffffffffffffffffffffffffffffffff160217905550505050600660009054906101000a900473ffffffffffffffffffffffffffffffffffffffff1673ffffffffffffffffffffffffffffffffffffffff16636fe75e8b82866040518363ffffffff167c01000000000000000000000000000000000000000000000000000000000281526004016112f3929190615b14565b602060405180830381600087803b15801561130d57600080fd5b505af1158015611321573d6000803e3d6000fd5b505050506040513d601f19601f820116820180604052506113459190810190614e95565b50600660009054906101000a900473ffffffffffffffffffffffffffffffffffffffff1673ffffffffffffffffffffffffffffffffffffffff166108fc829081150290604051600060405180830381858888f193505050501580156113ae573d6000803e3d6000fd5b50505b6001935050505090565b600f5481565b60006060600c60003373ffffffffffffffffffffffffffffffffffffffff1673ffffffffffffffffffffffffffffffffffffffff168152602001908152602001600020600001549150600c60003373ffffffffffffffffffffffffffffffffffffffff1673ffffffffffffffffffffffffffffffffffffffff16815260200190815260200160002060010180548060200260200160405190810160405280929190818152602001828054801561149657602002820191906000526020600020905b815481526020019060010190808311611482575b505050505090509091565b6000806000806114af614ae9565b600b876040518082805190602001908083835b6020831015156114e757805182526020820191506020810190506020830392506114c2565b6001836020036101000a0380198251168184511680821785525050505050509050019150509081526020016040518091039020866040518082805190602001908083835b602083101515611550578051825260208201915060208101905060208303925061152b565b6001836020036101000a038019825116818451168082178552505050505050905001915050908152602001604051809103902060a0604051908101604052908160008201548152602001600182015481526020016002820160009054906101000a900460ff16151515158152602001600382015481526020016004820160009054906101000a900460ff1615151515815250509050806000015194508060200151935080604001519250806060015191505092959194509250565b6000600660009054906101000a900473ffffffffffffffffffffffffffffffffffffffff1673ffffffffffffffffffffffffffffffffffffffff166317d4962c3385856040518463ffffffff167c01000000000000000000000000000000000000000000000000000000000281526004016116889392919061563e565b602060405180830381600087803b1580156116a257600080fd5b505af11580156116b6573d6000803e3d6000fd5b505050506040513d601f19601f820116820180604052506116da9190810190614e95565b905092915050565b6116ea613ab8565b73ffffffffffffffffffffffffffffffffffffffff163373ffffffffffffffffffffffffffffffffffffffff1614151561172357600080fd5b61172b614b1d565b600a600084815260200190815260200160002060c060405190810160405290816000820160009054906101000a900460ff16600281111561176857fe5b600281111561177357fe5b8152602001600182018054600181600116156101000203166002900480601f0160208091040260200160405190810160405280929190818152602001828054600181600116156101000203166002900480156118105780601f106117e557610100808354040283529160200191611810565b820191906000526020600020905b8154815290600101906020018083116117f357829003601f168201915b50505050508152602001600282018054600181600116156101000203166002900480601f0160208091040260200160405190810160405280929190818152602001828054600181600116156101000203166002900480156118b25780601f10611887576101008083540402835291602001916118b2565b820191906000526020600020905b81548152906001019060200180831161189557829003601f168201915b505050505081526020016003820160009054906101000a900473ffffffffffffffffffffffffffffffffffffffff1673ffffffffffffffffffffffffffffffffffffffff1673ffffffffffffffffffffffffffffffffffffffff1681526020016004820154815260200160058201548152505090506000825114156119aa577fd84bced00336476e4b29351921987c0a6b6e1ccda40fd01a78a54dce95358e556000600960008460a001518152602001908152602001600020600201600960008560a00151815260200190815260200160002060040160008060405161199c9594939291906157b7565b60405180910390a15061258b565b600060028111156119b757fe5b816000015160028111156119c757fe5b1415611a96577f759f31c436337ded0528d779bc5670e1cee655a312cb47e473cbaf457a16b26b8160600151826020015184604051611a089392919061569e565b60405180910390a1600a6000848152602001908152602001600020600080820160006101000a81549060ff0219169055600182016000611a489190614b78565b600282016000611a589190614b78565b6003820160006101000a81549073ffffffffffffffffffffffffffffffffffffffff0219169055600482016000905560058201600090555050612589565b60016002811115611aa357fe5b81600001516002811115611ab357fe5b1415611fc157611ac1614a1a565b600960008360a00151815260200190815260200160002060c06040519081016040529081600082015481526020016001820160009054906101000a900473ffffffffffffffffffffffffffffffffffffffff1673ffffffffffffffffffffffffffffffffffffffff1673ffffffffffffffffffffffffffffffffffffffff168152602001600282018054600181600116156101000203166002900480601f016020809104026020016040519081016040528092919081815260200182805460018160011615610100020316600290048015611bdd5780601f10611bb257610100808354040283529160200191611bdd565b820191906000526020600020905b815481529060010190602001808311611bc057829003601f168201915b505050505081526020016003820160009054906101000a900460ff16151515158152602001600482018054600181600116156101000203166002900480601f016020809104026020016040519081016040528092919081815260200182805460018160011615610100020316600290048015611c9a5780601f10611c6f57610100808354040283529160200191611c9a565b820191906000526020600020905b815481529060010190602001808311611c7d57829003601f168201915b5050505050815260200160058201548152505090506000806000806000611cc088613e22565b94509450945094509450600073__DateTime______________________________6362ba968787878787876040518663ffffffff167c0100000000000000000000000000000000000000000000000000000000028152600401611d279594939291906159bc565b60206040518083038186803b158015611d3f57600080fd5b505af4158015611d53573d6000803e3d6000fd5b505050506040513d601f19601f82011682018060405250611d7791908101906151d4565b90506000600b88604001516040518082805190602001908083835b602083101515611db75780518252602082019150602081019050602083039250611d92565b6001836020036101000a038019825116818451168082178552505050505050905001915050908152602001604051809103902088608001516040518082805190602001908083835b602083101515611e245780518252602082019150602081019050602083039250611dff565b6001836020036101000a03801982511681845116808217855250505050505090500191505090815260200160405180910390209050818160000181905550600081600101541180611e8357508060040160009054906101000a900460ff165b15611f33578181600101541115611ea4578181600101540381600301819055505b8060040160009054906101000a900460ff1615611ec5578181600101819055505b60018160020160006101000a81548160ff0219169083151502179055507fd84bced00336476e4b29351921987c0a6b6e1ccda40fd01a78a54dce95358e55600189604001518a6080015184600001548560010154604051611f2a959493929190615756565b60405180910390a15b600a60008c8152602001908152602001600020600080820160006101000a81549060ff0219169055600182016000611f6b9190614b78565b600282016000611f7b9190614b78565b6003820160006101000a81549073ffffffffffffffffffffffffffffffffffffffff02191690556004820160009055600582016000905550505050505050505050612588565b600280811115611fcd57fe5b81600001516002811115611fdd57fe5b141561258757611feb614a1a565b600960008360a00151815260200190815260200160002060c06040519081016040529081600082015481526020016001820160009054906101000a900473ffffffffffffffffffffffffffffffffffffffff1673ffffffffffffffffffffffffffffffffffffffff1673ffffffffffffffffffffffffffffffffffffffff168152602001600282018054600181600116156101000203166002900480601f0160208091040260200160405190810160405280929190818152602001828054600181600116156101000203166002900480156121075780601f106120dc57610100808354040283529160200191612107565b820191906000526020600020905b8154815290600101906020018083116120ea57829003601f168201915b505050505081526020016003820160009054906101000a900460ff16151515158152602001600482018054600181600116156101000203166002900480601f0160208091040260200160405190810160405280929190818152602001828054600181600116156101000203166002900480156121c45780601f10612199576101008083540402835291602001916121c4565b820191906000526020600020905b8154815290600101906020018083116121a757829003601f168201915b5050505050815260200160058201548152505090506000600b82604001516040518082805190602001908083835b60208310151561221757805182526020820191506020810190506020830392506121f2565b6001836020036101000a038019825116818451168082178552505050505050905001915050908152602001604051809103902082608001516040518082805190602001908083835b602083101515612284578051825260208201915060208101905060208303925061225f565b6001836020036101000a038019825116818451168082178552505050505050905001915050908152602001604051809103902090506123116122fa6040805190810160405280600481526020017f6e756c6c00000000000000000000000000000000000000000000000000000000815250613594565b61230386613594565b613fb090919063ffffffff16565b156123345760018160040160006101000a81548160ff0219169083151502179055505b60008090508160040160009054906101000a900460ff16151561242b5760008060008060006123628a613e22565b94509450945094509450600073__DateTime______________________________6362ba968787878787876040518663ffffffff167c01000000000000000000000000000000000000000000000000000000000281526004016123c99594939291906159bc565b60206040518083038186803b1580156123e157600080fd5b505af41580156123f5573d6000803e3d6000fd5b505050506040513d601f19601f8201168201806040525061241991908101906151d4565b90508088600101819055505050505050505b6000826000015411156125025780826000015410801561245a57508160040160009054906101000a900460ff16155b1561246f578160000154810382600301819055505b8160040160009054906101000a900460ff161561249457816000015482600101819055505b60018260020160006101000a81548160ff0219169083151502179055507fd84bced00336476e4b29351921987c0a6b6e1ccda40fd01a78a54dce95358e55600184604001518560800151856000015486600101546040516124f9959493929190615756565b60405180910390a15b600a6000878152602001908152602001600020600080820160006101000a81549060ff021916905560018201600061253a9190614b78565b60028201600061254a9190614b78565b6003820160006101000a81549073ffffffffffffffffffffffffffffffffffffffff02191690556004820160009055600582016000905550505050505b5b5b505b5050565b60075481565b505050565b60085481565b60075434101580156125b457506008543411155b15156125bf57600080fd5b60606125ca82613fc6565b9050600073__DateTime______________________________636f86c2b7620151804201846040518363ffffffff167c0100000000000000000000000000000000000000000000000000000000028152600401612628929190615ae4565b60206040518083038186803b15801561264057600080fd5b505af4158015612654573d6000803e3d6000fd5b505050506040513d601f19601f820116820180604052506126789190810190614fe3565b1215156126ba576040517f08c379a00000000000000000000000000000000000000000000000000000000081526004016126b1906158fc565b60405180910390fd5b6126c68383833361412f565b505050565b60008073ffffffffffffffffffffffffffffffffffffffff163373ffffffffffffffffffffffffffffffffffffffff161415151561270857600080fd5b3073ffffffffffffffffffffffffffffffffffffffff163182111580156127715750600c60003373ffffffffffffffffffffffffffffffffffffffff1673ffffffffffffffffffffffffffffffffffffffff168152602001908152602001600020600001548211155b151561277c57600080fd5b81600c60003373ffffffffffffffffffffffffffffffffffffffff1673ffffffffffffffffffffffffffffffffffffffff16815260200190815260200160002060000160008282540392505081905550816010541015156127ec57816010600082825403925050819055506127f5565b60006010819055505b3373ffffffffffffffffffffffffffffffffffffffff166108fc839081150290604051600060405180830381858888f1935050505015801561283b573d6000803e3d6000fd5b50919050565b60003073ffffffffffffffffffffffffffffffffffffffff1631905090565b60105481565b6000806060600060606000600960008881526020019081526020016000206000015495506009600088815260200190815260200160002060010160009054906101000a900473ffffffffffffffffffffffffffffffffffffffff1694506009600088815260200190815260200160002060030160009054906101000a900460ff169250600960008881526020019081526020016000206004018054600181600116156101000203166002900480601f0160208091040260200160405190810160405280929190818152602001828054600181600116156101000203166002900480156129935780601f1061296857610100808354040283529160200191612993565b820191906000526020600020905b81548152906001019060200180831161297657829003601f168201915b50505050509150600960008881526020019081526020016000206002018054600181600116156101000203166002900480601f016020809104026020016040519081016040528092919081815260200182805460018160011615610100020316600290048015612a445780601f10612a1957610100808354040283529160200191612a44565b820191906000526020600020905b815481529060010190602001808311612a2757829003601f168201915b505050505093506009600088815260200190815260200160002060050154905091939550919395565b6000600d80549050905090565b6000600660009054906101000a900473ffffffffffffffffffffffffffffffffffffffff16905090565b660e35fa931a00003410151515612af0576040517f08c379a0000000000000000000000000000000000000000000000000000000008152600401612ae79061593c565b60405180910390fd5b6060612b97612afe83613594565b612b89608060405190810160405280604381526020017f68747470733a2f2f666c69676874732e63747269702e636f6d2f70726f63657381526020017f732f616a61782f486973746f727950756e637475616c6974793f466c6967687481526020017f4e6f3d0000000000000000000000000000000000000000000000000000000000815250613594565b6135c290919063ffffffff16565b90506000612bde6040805190810160405280600381526020017f55524c00000000000000000000000000000000000000000000000000000000008152508362030d40613644565b905060c06040519081016040528060006002811115612bf957fe5b8152602001848152602001602060405190810160405280600081525081526020013373ffffffffffffffffffffffffffffffffffffffff168152602001600081526020016000600102815250600a600083815260200190815260200160002060008201518160000160006101000a81548160ff02191690836002811115612c7c57fe5b02179055506020820151816001019080519060200190612c9d929190614a69565b506040820151816002019080519060200190612cba929190614a69565b5060608201518160030160006101000a81548173ffffffffffffffffffffffffffffffffffffffff021916908373ffffffffffffffffffffffffffffffffffffffff1602179055506080820151816004015560a08201518160050155905050505050565b6000612d28614a1a565b6009600084815260200190815260200160002060c06040519081016040529081600082015481526020016001820160009054906101000a900473ffffffffffffffffffffffffffffffffffffffff1673ffffffffffffffffffffffffffffffffffffffff1673ffffffffffffffffffffffffffffffffffffffff168152602001600282018054600181600116156101000203166002900480601f016020809104026020016040519081016040528092919081815260200182805460018160011615610100020316600290048015612e405780601f10612e1557610100808354040283529160200191612e40565b820191906000526020600020905b815481529060010190602001808311612e2357829003601f168201915b505050505081526020016003820160009054906101000a900460ff16151515158152602001600482018054600181600116156101000203166002900480601f016020809104026020016040519081016040528092919081815260200182805460018160011615610100020316600290048015612efd5780601f10612ed257610100808354040283529160200191612efd565b820191906000526020600020905b815481529060010190602001808311612ee057829003601f168201915b5050505050815260200160058201548152505090508060600151151515612f59576040517f08c379a0000000000000000000000000000000000000000000000000000000008152600401612f509061597c565b60405180910390fd5b600b81604001516040518082805190602001908083835b602083101515612f955780518252602082019150602081019050602083039250612f70565b6001836020036101000a038019825116818451168082178552505050505050905001915050908152602001604051809103902081608001516040518082805190602001908083835b6020831015156130025780518252602082019150602081019050602083039250612fdd565b6001836020036101000a038019825116818451168082178552505050505050905001915050908152602001604051809103902060020160009054906101000a900460ff161515613087576040517f08c379a000000000000000000000000000000000000000000000000000000000815260040161307e9061599c565b60405180910390fd5b60008090508160000151600f541015156130b4578160000151600f600082825403925050819055506130bd565b6000600f819055505b610e10600b83604001516040518082805190602001908083835b6020831015156130fc57805182526020820191506020810190506020830392506130d7565b6001836020036101000a038019825116818451168082178552505050505050905001915050908152602001604051809103902083608001516040518082805190602001908083835b6020831015156131695780518252602082019150602081019050602083039250613144565b6001836020036101000a0380198251168184511680821785525050505050509050019150509081526020016040518091039020600301541015156131f857600a82600001510290507f5cd26d687928c0b558f2b3b5b4ff78d5d330be3c935581bc581c70001181a8456001858460200151846040516131eb94939291906156fe565b60405180910390a161338a565b610708600b83604001516040518082805190602001908083835b6020831015156132375780518252602082019150602081019050602083039250613212565b6001836020036101000a038019825116818451168082178552505050505050905001915050908152602001604051809103902083608001516040518082805190602001908083835b6020831015156132a4578051825260208201915060208101905060208303925061327f565b6001836020036101000a03801982511681845116808217855250505050505090500191505090815260200160405180910390206003015410151561333357600582600001510290507f5cd26d687928c0b558f2b3b5b4ff78d5d330be3c935581bc581c70001181a84560018584602001518460405161332694939291906156fe565b60405180910390a1613389565b600a826000015181151561334357fe5b0490507f5cd26d687928c0b558f2b3b5b4ff78d5d330be3c935581bc581c70001181a84560008584602001518460405161338094939291906156fe565b60405180910390a15b5b80600c6000846020015173ffffffffffffffffffffffffffffffffffffffff1673ffffffffffffffffffffffffffffffffffffffff168152602001908152602001600020600001600082825401925050819055508060106000828254019250508190555080600960008681526020019081526020016000206005018190555060016009600086815260200190815260200160002060030160006101000a81548160ff0219169083151502179055505050919050565b6000600660009054906101000a900473ffffffffffffffffffffffffffffffffffffffff1673ffffffffffffffffffffffffffffffffffffffff16630a90a83933346040518363ffffffff167c01000000000000000000000000000000000000000000000000000000000281526004016134ba929190615675565b602060405180830381600087803b1580156134d457600080fd5b505af11580156134e8573d6000803e3d6000fd5b505050506040513d601f19601f8201168201806040525061350c9190810190614e95565b905090565b6000601054600a6009600f540281151561352757fe5b04013073ffffffffffffffffffffffffffffffffffffffff1631111561358c5760056004601054600a6009600f540281151561355f57fe5b043073ffffffffffffffffffffffffffffffffffffffff163103030281151561358457fe5b049050613591565b600090505b90565b61359c614bc0565b600060208301905060408051908101604052808451815260200182815250915050919050565b60608082600001518460000151016040519080825280601f01601f1916602001820160405280156136025781602001600182028038833980820191505090505b50905060006020820190506136208186602001518760000151614413565b6136398560000151820185602001518660000151614413565b819250505092915050565b60008073ffffffffffffffffffffffffffffffffffffffff16600160009054906101000a900473ffffffffffffffffffffffffffffffffffffffff1673ffffffffffffffffffffffffffffffffffffffff1614806136cc575060006136ca600160009054906101000a900473ffffffffffffffffffffffffffffffffffffffff1661445e565b145b156136dd576136db6000614469565b505b600160009054906101000a900473ffffffffffffffffffffffffffffffffffffffff1673ffffffffffffffffffffffffffffffffffffffff166338cc48316040518163ffffffff167c0100000000000000000000000000000000000000000000000000000000028152600401602060405180830381600087803b15801561376357600080fd5b505af1158015613777573d6000803e3d6000fd5b505050506040513d601f19601f8201168201806040525061379b9190810190614e07565b73ffffffffffffffffffffffffffffffffffffffff166000809054906101000a900473ffffffffffffffffffffffffffffffffffffffff1673ffffffffffffffffffffffffffffffffffffffff161415156138ee57600160009054906101000a900473ffffffffffffffffffffffffffffffffffffffff1673ffffffffffffffffffffffffffffffffffffffff166338cc48316040518163ffffffff167c0100000000000000000000000000000000000000000000000000000000028152600401602060405180830381600087803b15801561387657600080fd5b505af115801561388a573d6000803e3d6000fd5b505050506040513d601f19601f820116820180604052506138ae9190810190614e07565b6000806101000a81548173ffffffffffffffffffffffffffffffffffffffff021916908373ffffffffffffffffffffffffffffffffffffffff1602179055505b60008060009054906101000a900473ffffffffffffffffffffffffffffffffffffffff1673ffffffffffffffffffffffffffffffffffffffff16632ef3accc86856040518363ffffffff167c01000000000000000000000000000000000000000000000000000000000281526004016139689291906158cc565b602060405180830381600087803b15801561398257600080fd5b505af1158015613996573d6000803e3d6000fd5b505050506040513d601f19601f820116820180604052506139ba91908101906151d4565b9050823a02670de0b6b3a7640000018111156139dd576000600102915050613ab1565b6000809054906101000a900473ffffffffffffffffffffffffffffffffffffffff1673ffffffffffffffffffffffffffffffffffffffff1663c51be90f8260008888886040518663ffffffff167c0100000000000000000000000000000000000000000000000000000000028152600401613a5b9493929190615879565b6020604051808303818588803b158015613a7457600080fd5b505af1158015613a88573d6000803e3d6000fd5b50505050506040513d601f19601f82011682018060405250613aad9190810190614ee7565b9150505b9392505050565b60008073ffffffffffffffffffffffffffffffffffffffff16600160009054906101000a900473ffffffffffffffffffffffffffffffffffffffff1673ffffffffffffffffffffffffffffffffffffffff161480613b4057506000613b3e600160009054906101000a900473ffffffffffffffffffffffffffffffffffffffff1661445e565b145b15613b5157613b4f6000614469565b505b600160009054906101000a900473ffffffffffffffffffffffffffffffffffffffff1673ffffffffffffffffffffffffffffffffffffffff166338cc48316040518163ffffffff167c0100000000000000000000000000000000000000000000000000000000028152600401602060405180830381600087803b158015613bd757600080fd5b505af1158015613beb573d6000803e3d6000fd5b505050506040513d601f19601f82011682018060405250613c0f9190810190614e07565b73ffffffffffffffffffffffffffffffffffffffff166000809054906101000a900473ffffffffffffffffffffffffffffffffffffffff1673ffffffffffffffffffffffffffffffffffffffff16141515613d6257600160009054906101000a900473ffffffffffffffffffffffffffffffffffffffff1673ffffffffffffffffffffffffffffffffffffffff166338cc48316040518163ffffffff167c0100000000000000000000000000000000000000000000000000000000028152600401602060405180830381600087803b158015613cea57600080fd5b505af1158015613cfe573d6000803e3d6000fd5b505050506040513d601f19601f82011682018060405250613d229190810190614e07565b6000806101000a81548173ffffffffffffffffffffffffffffffffffffffff021916908373ffffffffffffffffffffffffffffffffffffffff1602179055505b6000809054906101000a900473ffffffffffffffffffffffffffffffffffffffff1673ffffffffffffffffffffffffffffffffffffffff1663c281d19e6040518163ffffffff167c010000000000000000000000000000000000000000000000000000000002815260040160206040518083038186803b158015613de557600080fd5b505afa158015613df9573d6000803e3d6000fd5b505050506040513d601f19601f82011682018060405250613e1d9190810190614e07565b905090565b600080600080600080600080600080600060208c01518c515b6004831015613e5f57600a88029750603082841a0388019750600183019250613e3b565b61270f881115613e6e57600080fd5b6001830192505b6000602d83851a141415613e9e57600a87029650603082841a0387019650600183019250613e75565b600c871115613eac57600080fd5b6001830192505b808310602f83851a11603a84861a10161615613ee457600a86029550603082841a0386019550600183019250613eb3565b601f861115613ef257600080fd5b80831015613f33576001830192505b808310603a83851a10602f84861a11161615613f3257600a85029450603082841a0385019450600183019250613f01565b5b6018851115613f4157600080fd5b80831015613f82576001830192505b808310603a83851a10602f84861a11161615613f8157600a84029350603082841a0384019350600183019250613f50565b5b603b841115613f9057600080fd5b879c50869b50859a50849950839850505050505050505091939590929450565b600080613fbd848461447a565b14905092915050565b60606000601063ffff00008416908060020a820491505090506000600861ff008516908060020a82049150509050600060ff8516905061270f831115801561400f5750600c8211155b801561401b5750600082115b80156140275750600081115b80156140345750601f8111155b151561403f57600080fd5b6040519350602384018060005b600086111561407857600a86069050600a86069050600a8604955060308101825360018203915061404c565b50600182019150602d82536001820191506009841115614099576001820191505b81905060005b60008511156140c557600a85069050600a8504945060308101825360018203915061409f565b50600182019150602d825360018201915060098311156140e6576001820191505b81905060005b600084111561411257600a84069050600a840493506030810182536001820391506140ec565b50601f868303038652600182019150816040525050505050919050565b6060604051905060208101602086018382526020820191508651602081111561415757600080fd5b6001816020036101000a031982518116845260208401935087845260208401935060608552836040525050505060008180519060200120905060006009600083815260200190815260200160002060010160009054906101000a900473ffffffffffffffffffffffffffffffffffffffff169050600073ffffffffffffffffffffffffffffffffffffffff168173ffffffffffffffffffffffffffffffffffffffff1614151561423c576040517f08c379a00000000000000000000000000000000000000000000000000000000081526004016142339061595c565b60405180910390fd5b60c0604051908101604052803481526020018573ffffffffffffffffffffffffffffffffffffffff1681526020018881526020016000151581526020018681526020016000815250600960008481526020019081526020016000206000820151816000015560208201518160010160006101000a81548173ffffffffffffffffffffffffffffffffffffffff021916908373ffffffffffffffffffffffffffffffffffffffff1602179055506040820151816002019080519060200190614304929190614a69565b5060608201518160030160006101000a81548160ff0219169083151502179055506080820151816004019080519060200190614341929190614a69565b5060a08201518160050155905050600c60008573ffffffffffffffffffffffffffffffffffffffff1673ffffffffffffffffffffffffffffffffffffffff16815260200190815260200160002060010182908060018154018082558091505090600182039060005260206000200160009091929091909150555034600f600082825401925050819055507f75c6ed0620e6c7da199f70d7203beef4aa52811d055c65022414289ad4374a628288873334604051614402959493929190615818565b60405180910390a150505050505050565b5b6020811015156144395781518352602083019250602082019150602081039050614414565b60006001826020036101000a0390508019835116818551168181178652505050505050565b6000813b9050919050565b600061447361456a565b9050919050565b6000808360000151905083600001518360000151101561449c57826000015190505b60008460200151905060008460200151905060008090505b8381101561455257600080845191508351905080821415156145395760007fffffffffffffffffffffffffffffffffffffffffffffffffffffffffffffffff9050602087101561451157600184886020030160080260020a031990505b6000818316828516039050600081141515614536578098505050505050505050614564565b50505b60208501945060208401935050506020810190506144b4565b50846000015186600001510393505050505b92915050565b60008061458a731d3b2638a7cc9f2cb3d298a3da7a90b67e5506ed61445e565b111561462c57731d3b2638a7cc9f2cb3d298a3da7a90b67e5506ed600160006101000a81548173ffffffffffffffffffffffffffffffffffffffff021916908373ffffffffffffffffffffffffffffffffffffffff1602179055506146236040805190810160405280600b81526020017f6574685f6d61696e6e6574000000000000000000000000000000000000000000815250614a00565b600190506149fd565b600061464b73c03a2615d5efaf5f49f60b7bb6583eaec212fdf161445e565b11156146ed5773c03a2615d5efaf5f49f60b7bb6583eaec212fdf1600160006101000a81548173ffffffffffffffffffffffffffffffffffffffff021916908373ffffffffffffffffffffffffffffffffffffffff1602179055506146e46040805190810160405280600c81526020017f6574685f726f707374656e330000000000000000000000000000000000000000815250614a00565b600190506149fd565b600061470c73b7a07bcf2ba2f2703b24c0691b5278999c59ac7e61445e565b11156147ae5773b7a07bcf2ba2f2703b24c0691b5278999c59ac7e600160006101000a81548173ffffffffffffffffffffffffffffffffffffffff021916908373ffffffffffffffffffffffffffffffffffffffff1602179055506147a56040805190810160405280600981526020017f6574685f6b6f76616e0000000000000000000000000000000000000000000000815250614a00565b600190506149fd565b60006147cd73146500cfd35b22e4a392fe0adc06de1a1368ed4861445e565b111561486f5773146500cfd35b22e4a392fe0adc06de1a1368ed48600160006101000a81548173ffffffffffffffffffffffffffffffffffffffff021916908373ffffffffffffffffffffffffffffffffffffffff1602179055506148666040805190810160405280600b81526020017f6574685f72696e6b656279000000000000000000000000000000000000000000815250614a00565b600190506149fd565b600061488e736f485c8bf6fc43ea212e93bbf8ce046c7f1cb47561445e565b11156148f257736f485c8bf6fc43ea212e93bbf8ce046c7f1cb475600160006101000a81548173ffffffffffffffffffffffffffffffffffffffff021916908373ffffffffffffffffffffffffffffffffffffffff160217905550600190506149fd565b60006149117320e12a1f859b3feae5fb2a0a32c18f5a65555bbf61445e565b1115614975577320e12a1f859b3feae5fb2a0a32c18f5a65555bbf600160006101000a81548173ffffffffffffffffffffffffffffffffffffffff021916908373ffffffffffffffffffffffffffffffffffffffff160217905550600190506149fd565b60006149947351efaf4c8b3c9afbd5ab9f4bbc82784ab6ef8faa61445e565b11156149f8577351efaf4c8b3c9afbd5ab9f4bbc82784ab6ef8faa600160006101000a81548173ffffffffffffffffffffffffffffffffffffffff021916908373ffffffffffffffffffffffffffffffffffffffff160217905550600190506149fd565b600090505b90565b8060029080519060200190614a16929190614bda565b5050565b60c06040519081016040528060008152602001600073ffffffffffffffffffffffffffffffffffffffff1681526020016060815260200160001515815260200160608152602001600081525090565b828054600181600116156101000203166002900490600052602060002090601f016020900481019282601f10614aaa57805160ff1916838001178555614ad8565b82800160010185558215614ad8579182015b82811115614ad7578251825591602001919060010190614abc565b5b509050614ae59190614c5a565b5090565b60a0604051908101604052806000815260200160008152602001600015158152602001600081526020016000151581525090565b60c06040519081016040528060006002811115614b3657fe5b81526020016060815260200160608152602001600073ffffffffffffffffffffffffffffffffffffffff16815260200160008152602001600080191681525090565b50805460018160011615610100020316600290046000825580601f10614b9e5750614bbd565b601f016020900490600052602060002090810190614bbc9190614c5a565b5b50565b604080519081016040528060008152602001600081525090565b828054600181600116156101000203166002900490600052602060002090601f016020900481019282601f10614c1b57805160ff1916838001178555614c49565b82800160010185558215614c49579182015b82811115614c48578251825591602001919060010190614c2d565b5b509050614c569190614c5a565b5090565b614c7c91905b80821115614c78576000816000905550600101614c60565b5090565b90565b6000614c8b8235615d06565b905092915050565b6000614c9f8251615d06565b905092915050565b6000614cb38235615d18565b905092915050565b6000614cc78251615d2a565b905092915050565b6000614cdb8235615d36565b905092915050565b6000614cef8251615d36565b905092915050565b600082601f8301121515614d0a57600080fd5b8135614d1d614d1882615bf4565b615bc7565b91508082526020830160208301858383011115614d3957600080fd5b614d44838284615dc9565b50505092915050565b6000614d598251615d40565b905092915050565b600082601f8301121515614d7457600080fd5b8135614d87614d8282615c20565b615bc7565b91508082526020830160208301858383011115614da357600080fd5b614dae838284615dc9565b50505092915050565b6000614dc38251615d4a565b905092915050565b6000614dd78235615d58565b905092915050565b6000614deb8251615d58565b905092915050565b6000614dff8251615d62565b905092915050565b600060208284031215614e1957600080fd5b6000614e2784828501614c93565b91505092915050565b600060208284031215614e4257600080fd5b6000614e5084828501614ca7565b91505092915050565b60008060408385031215614e6c57600080fd5b6000614e7a85828601614c7f565b9250506020614e8b85828601614dcb565b9150509250929050565b600060208284031215614ea757600080fd5b6000614eb584828501614cbb565b91505092915050565b600060208284031215614ed057600080fd5b6000614ede84828501614ccf565b91505092915050565b600060208284031215614ef957600080fd5b6000614f0784828501614ce3565b91505092915050565b60008060408385031215614f2357600080fd5b6000614f3185828601614ccf565b925050602083013567ffffffffffffffff811115614f4e57600080fd5b614f5a85828601614d61565b9150509250929050565b600080600060608486031215614f7957600080fd5b6000614f8786828701614ccf565b935050602084013567ffffffffffffffff811115614fa457600080fd5b614fb086828701614d61565b925050604084013567ffffffffffffffff811115614fcd57600080fd5b614fd986828701614cf7565b9150509250925092565b600060208284031215614ff557600080fd5b600061500384828501614d4d565b91505092915050565b60006020828403121561501e57600080fd5b600082013567ffffffffffffffff81111561503857600080fd5b61504484828501614d61565b91505092915050565b6000806040838503121561506057600080fd5b600083013567ffffffffffffffff81111561507a57600080fd5b61508685828601614d61565b925050602083013567ffffffffffffffff8111156150a357600080fd5b6150af85828601614d61565b9150509250929050565b600080604083850312156150cc57600080fd5b600083013567ffffffffffffffff8111156150e657600080fd5b6150f285828601614d61565b925050602061510385828601614dcb565b9150509250929050565b600080600080600080600060e0888a03121561512857600080fd5b60006151368a828b01614db7565b97505060206151478a828b01614df3565b96505060406151588a828b01614df3565b95505060606151698a828b01614df3565b945050608061517a8a828b01614df3565b93505060a061518b8a828b01614ddf565b92505060c061519c8a828b01614ddf565b91505092959891949750929550565b6000602082840312156151bd57600080fd5b60006151cb84828501614dcb565b91505092915050565b6000602082840312156151e657600080fd5b60006151f484828501614ddf565b91505092915050565b61520681615d6f565b82525050565b61521581615c99565b82525050565b600061522682615c6b565b80845260208401935061523883615c4c565b60005b8281101561526a5761524e868351615285565b61525782615c8c565b915060208601955060018101905061523b565b50849250505092915050565b61527f81615cab565b82525050565b61528e81615cb7565b82525050565b61529d81615d81565b82525050565b60006152ae82615c81565b8084526152c2816020860160208601615dd8565b6152cb81615e0b565b602085010191505092915050565b60006152e482615c81565b8084526152f8816020860160208601615dd8565b61530181615e0b565b602085010191505092915050565b600061531a82615c76565b80845261532e816020860160208601615dd8565b61533781615e0b565b602085010191505092915050565b6000815460018116600081146153625760018114615382576153c3565b607f600283041680865260ff1983166020870152604086019350506153c3565b6002820480865260208601955061539885615c59565b60005b828110156153ba5781548189015260018201915060208101905061539b565b80880195505050505b505092915050565b6000602682527f506c6561736520696e7375726520343820686f757273206265666f726520646560208301527f70617475726500000000000000000000000000000000000000000000000000006040830152606082019050919050565b6000601a82527f526571756573742066656520697320302e3030382065746865720000000000006020830152604082019050919050565b6000602982527f506c65617365207472616e736665722074686520302e3030342065746865722060208301527f74686520636865636b00000000000000000000000000000000000000000000006040830152606082019050919050565b6000602382527f596f75206861766520616c726561647920696e73757265207468697320666c6960208301527f67687400000000000000000000000000000000000000000000000000000000006040830152606082019050919050565b6000601882527f596f75206861766520616c726561647920636c61696d656400000000000000006020830152604082019050919050565b6000808252602082019050919050565b6000602282527f506c65617365207265717565737420737461747573207570646174652066697260208301527f73740000000000000000000000000000000000000000000000000000000000006040830152606082019050919050565b6155c681615cc1565b82525050565b6155d581615db7565b82525050565b6155e481615cef565b82525050565b6155f381615cef565b82525050565b61560281615cf9565b82525050565b600060208201905061561d600083018461520c565b92915050565b600060208201905061563860008301846151fd565b92915050565b600060608201905061565360008301866151fd565b615660602083018561520c565b61566d60408301846155db565b949350505050565b600060408201905061568a60008301856151fd565b61569760208301846155db565b9392505050565b60006060820190506156b3600083018661520c565b81810360208301526156c5818561530f565b905081810360408301526156d981846152a3565b9050949350505050565b60006020820190506156f86000830184615276565b92915050565b600060a0820190506157136000830187615276565b6157206020830186615285565b818103604083015261573181615550565b9050615740606083018561520c565b61574d60808301846155db565b95945050505050565b600060a08201905061576b6000830188615276565b818103602083015261577d818761530f565b90508181036040830152615791818661530f565b90506157a060608301856155db565b6157ad60808301846155db565b9695505050505050565b600060a0820190506157cc6000830188615276565b81810360208301526157de8187615345565b905081810360408301526157f28186615345565b90506158016060830185615294565b61580e6080830184615294565b9695505050505050565b600060a08201905061582d6000830188615285565b818103602083015261583f81876152a3565b9050818103604083015261585381866152a3565b905061586260608301856151fd565b61586f60808301846155db565b9695505050505050565b600060808201905061588e6000830187615294565b81810360208301526158a081866152a3565b905081810360408301526158b481856152a3565b90506158c360608301846155db565b95945050505050565b600060408201905081810360008301526158e681856152a3565b90506158f560208301846155db565b9392505050565b60006020820190508181036000830152615915816153cb565b9050919050565b6000602082019050818103600083015261593581615428565b9050919050565b600060208201905081810360008301526159558161545f565b9050919050565b60006020820190508181036000830152615975816154bc565b9050919050565b6000602082019050818103600083015261599581615519565b9050919050565b600060208201905081810360008301526159b581615560565b9050919050565b600060a0820190506159d160008301886155bd565b6159de60208301876155f9565b6159eb60408301866155f9565b6159f860608301856155f9565b615a0560808301846155f9565b9695505050505050565b6000602082019050615a2460008301846155db565b92915050565b6000602082019050615a3f60008301846155ea565b92915050565b600060c082019050615a5a60008301896155db565b615a67602083018861520c565b8181036040830152615a7981876152a3565b9050615a886060830186615276565b8181036080830152615a9a81856152a3565b9050615aa960a08301846155db565b979650505050505050565b6000604082019050615ac960008301856155db565b8181036020830152615adb818461521b565b90509392505050565b6000604082019050615af960008301856155ea565b8181036020830152615b0b81846152d9565b90509392505050565b6000604082019050615b2960008301856155db565b615b3660208301846155cc565b9392505050565b6000608082019050615b5260008301876155db565b615b5f60208301866155db565b615b6c6040830185615276565b615b7960608301846155db565b95945050505050565b6000608082019050615b9760008301876155db565b615ba460208301866155db565b615bb160408301856155db565b615bbe606083018461520c565b95945050505050565b6000604051905081810181811067ffffffffffffffff82111715615bea57600080fd5b8060405250919050565b600067ffffffffffffffff821115615c0b57600080fd5b601f19601f8301169050602081019050919050565b600067ffffffffffffffff821115615c3757600080fd5b601f19601f8301169050602081019050919050565b6000602082019050919050565b60008160005260206000209050919050565b600081519050919050565b600081519050919050565b600081519050919050565b6000602082019050919050565b6000615ca482615ccf565b9050919050565b60008115159050919050565b6000819050919050565b600061ffff82169050919050565b600073ffffffffffffffffffffffffffffffffffffffff82169050919050565b6000819050919050565b600060ff82169050919050565b6000615d1182615ccf565b9050919050565b6000615d2382615ccf565b9050919050565b60008115159050919050565b6000819050919050565b6000819050919050565b600061ffff82169050919050565b6000819050919050565b600060ff82169050919050565b6000615d7a82615d93565b9050919050565b6000615d8c82615cef565b9050919050565b6000615d9e82615da5565b9050919050565b6000615db082615ccf565b9050919050565b6000615dc282615cc1565b9050919050565b82818337600083830152505050565b60005b83811015615df6578082015181840152602081019050615ddb565b83811115615e05576000848401525b50505050565b6000601f19601f830116905091905056fea265627a7a72305820550093318374207aab8c6f2fc7fca3b215e37185dcc9581a7ab643004d8d14646c6578706572696d656e74616cf50037",
  "source": "pragma solidity ^0.5.0;\npragma experimental ABIEncoderV2;\nimport \"./oraclize/usingOraclize.sol\";\nimport \"./stringutils/strings.sol\";\nimport \"./library/DateTime.sol\";\nimport \"./Shareholder.sol\";\ncontract FlightTest is usingOraclize {\n   using strings for *;\n   address payable owner;\n   Shareholder holderContract;\n   uint public priceLimit_Low =  50000000000000000;   // 0.05 ETH\n   uint public priceLimit_High = 10000000000000000000; // 10 ETH\n   enum OraclizeState {CheckValid,EstTimeCheck,ActTimeCheck}\n   struct OraclizeCallback {\n        OraclizeState oState;\n        string flightNo;\n        string expectedDepatureDate;\n        address user;\n        uint paidAmt;\n        bytes32 content;\n   }\n   struct FlightStatus {\n        uint expectedArriveDate;\n        uint actArriveDate;\n        bool checked;\n        uint delaySeconds;\n        bool isActResultNull;\n   }\n   struct UserAccount {\n        uint256 balance;\n        bytes32[] order_ids;\n   }\n   struct Order {\n       uint payoutAmount;\n       address user;\n       string flightNo;\n       bool isDone;\n       string expectedDepatureDate;\n       uint compensateValue;\n   }\n   struct Profit{\n       uint profit;\n       uint timestamp;\n       uint year;\n       address triggerAddr;\n   }\n   mapping(bytes32 => Order) orders;\n   mapping(bytes32 => OraclizeCallback) callbacks;\n   mapping(string => mapping(string => FlightStatus)) status;\n   mapping(address => UserAccount) accounts;\n   Profit[] dividendYearList;\n   address [] shareholders;\n   uint public unClaimedAmount;\n   uint public balanceOffset;\n   constructor() public payable{\n         owner = msg.sender;\n         OAR = OraclizeAddrResolverI(0x6f485C8BF6fc43eA212E93BBF8ce046C7f1cb475);\n   }\n   event LogCheckValid(address sender,string flightNo,string result);\n   event LogString(string,string);\n   event LogBytes32(string,bytes32);\n   event LogCompensation(bool isSuccess,bytes32 order_id,string message,address user,uint amount);\n   event LogOrderCreated(bytes32 order_id,string flightNo,string expectedDepatureDate,address user,uint paidAmt);\n   event LogFlightStatusUpdate(bool isSuccess,string flightNo,string expectedDepatureDate,uint expectedArriveDate,uint actArriveDate);\n   function setHolderContract(address payable contractAddr) public {\n       require(address(holderContract) == address(0));\n       require(msg.sender == owner);\n       holderContract = (Shareholder)(contractAddr);\n   }\n   function () external payable{\n   }\n   function donate() public payable returns(bool){\n       return holderContract.buyShareHolder(msg.sender,msg.value);\n   }\n   function transferShareHolder(address to,uint token) public returns(bool){\n       return holderContract.transferShareHolder(msg.sender,to,token);\n   }\n   function recordOrder(string memory flightNo,uint expDate,string memory expectedDate,address orderOwner) internal {\n        bytes memory info_bytes;\n                assembly {\n                                    info_bytes := mload(0x40)\n                                    let ptr := add(info_bytes,32)\n                                    let ptrFlight := add(flightNo,32)\n                                    mstore(ptr,orderOwner)\n                                    ptr := add(ptr,32)\n                                    let flightNoLen := mload(flightNo)\n                                    if gt(flightNoLen,32) {revert(0,0)}\n                                    let mask := not(sub(exp(256,sub(32,flightNoLen)),1))\n                                    mstore(ptr,and(mask,mload(ptrFlight)))\n                                    ptr := add(ptr,32)\n                                    mstore(ptr,expDate)\n                                    ptr := add(ptr,32)\n                                    mstore(info_bytes,96)\n                                    mstore(0x40,ptr)\n                }\n                bytes32 t_id = keccak256(info_bytes);\n                address addr = orders[t_id].user;\n                require(addr == address(0),\"You have already insure this flight\");\n                orders[t_id] = Order(msg.value,orderOwner,flightNo,false,expectedDate,0);\n                accounts[orderOwner].order_ids.push(t_id);\n                unClaimedAmount += msg.value;\n                emit LogOrderCreated(t_id,flightNo,expectedDate,msg.sender,msg.value);\n   }\n   function checkValidFlight(string memory flightNo) public payable {\n        require(msg.value >= 4000000000000000,\"Please transfer the 0.004 ether the check\");\n        string memory queryStr = \"https://flights.ctrip.com/process/ajax/HistoryPunctuality?FlightNo=\".toSlice()\n        .concat(flightNo.toSlice());\n        bytes32 queryId = oraclize_query(\"URL\",queryStr,200000);\n        callbacks[queryId] = OraclizeCallback(OraclizeState.CheckValid,flightNo,\"\",msg.sender,0,0);\n   }\n   function insure(string memory flightNo,uint expDate) public payable {\n        require(msg.value >= priceLimit_Low && msg.value <= priceLimit_High);\n        string memory expectedDate = DateTime.uintToDateString(expDate);\n        require(DateTime.comparingToTimeStamp(now + 86400,expectedDate) < 0,\"Please insure 48 hours before depature\");\n        recordOrder(flightNo,expDate,expectedDate,msg.sender);\n   }\n   function getShareholderContractAddr() public view returns(address) {\n        return address(holderContract);\n   }\n   function getContractBalance() public view returns(uint) {\n        return address(this).balance;\n   }\n   function getContractProfit() public view returns(uint) {\n        if(address(this).balance > unClaimedAmount * 9 / 10 + balanceOffset) {\n            return (address(this).balance - unClaimedAmount * 9 / 10 - balanceOffset) * 4 / 5;\n        } else {\n            return 0;\n        }\n   }\n   function getMyAccountInfo() public view returns(uint balance,bytes32[] memory order_ids) {\n       balance = accounts[msg.sender].balance;\n       order_ids = accounts[msg.sender].order_ids;\n   }\n   function getOrderInfo(bytes32 id) public view returns(uint payoutAmount,\n                                                         address user,\n                                                         string memory flightNo,\n                                                         bool isDone,\n                                                         string memory expectedDepatureDate,\n                                                         uint compensateValue) {\n       payoutAmount = orders[id].payoutAmount;\n       user = orders[id].user;\n       isDone = orders[id].isDone;\n       expectedDepatureDate = orders[id].expectedDepatureDate;\n       flightNo = orders[id].flightNo;\n       compensateValue = orders[id].compensateValue;\n   }\n   function getFlightStatus(string memory flightNo,string memory flightDate) public view\n   returns(uint expectedArriveDate,\n           uint actArriveDate,\n           bool checked,\n           uint delaySeconds)\n   {\n       FlightStatus memory _status = status[flightNo][flightDate];\n       expectedArriveDate = _status.expectedArriveDate;\n       actArriveDate = _status.actArriveDate;\n       checked = _status.checked;\n       delaySeconds = _status.delaySeconds;\n   }\n   function withDrawBalance(uint amount) public returns(bool){\n       require(msg.sender != address(0));\n       require(amount <= address(this).balance && amount <= accounts[msg.sender].balance);\n       accounts[msg.sender].balance -= amount;\n       if(balanceOffset >= amount) {\n            balanceOffset -= amount;\n       }\n       else {\n            balanceOffset = 0;\n       }\n       msg.sender.transfer(amount);\n   }\n   function dividend() public returns(bool){\n        (uint16 _year,uint8 _month,,,,,) = DateTime.parseTimestamp(now);\n        require((dividendYearList.length == 0 || dividendYearList[dividendYearList.length - 1].year < _year)\n        && _month == 12);\n        uint token = holderContract.getShareToken(msg.sender);\n        require(token > 0);\n        if(unClaimedAmount * 9 / 10 + balanceOffset < address(this).balance) {\n            uint profitThisTurn = (address(this).balance - unClaimedAmount * 9/10 - balanceOffset) * 4 / 5;\n            dividendYearList.push(Profit({profit:profitThisTurn,timestamp:now,year:_year,triggerAddr:msg.sender}));\n            holderContract.dividend(profitThisTurn,_year);\n            address(holderContract).transfer(profitThisTurn);\n        }\n        return true;\n   }\n   function getDividendLen() public view returns(uint) {\n          return dividendYearList.length;\n   }\n   function getDividendHistory(uint i) public view returns(uint profit,uint timestamp,uint year,address triggerAddr) {\n          profit = dividendYearList[i].profit;\n          timestamp = dividendYearList[i].timestamp;\n          year = dividendYearList[i].year;\n          triggerAddr = dividendYearList[i].triggerAddr;\n   }\n   function claimCompensation(bytes32 order_id) public returns(bool) {\n       Order memory order  = orders[order_id];\n       require(!order.isDone,\"You have already claimed\");\n       require(status[order.flightNo][order.expectedDepatureDate].checked,\"Please request status update first\");\n       uint compensateValue = 0;\n       if(unClaimedAmount >= order.payoutAmount) {\n          unClaimedAmount -= order.payoutAmount;\n       } else {\n          unClaimedAmount = 0;\n       }\n       if(status[order.flightNo][order.expectedDepatureDate].delaySeconds >= 3600) {\n            compensateValue = order.payoutAmount * 10;\n            emit LogCompensation(true,order_id,\"\",order.user,compensateValue);\n       } else if(status[order.flightNo][order.expectedDepatureDate].delaySeconds >= 1800) {\n            compensateValue = order.payoutAmount * 5;\n            emit LogCompensation(true,order_id,\"\",order.user,compensateValue);\n       } else {\n            compensateValue = order.payoutAmount / 10;\n            emit LogCompensation(false,order_id,\"\",order.user,compensateValue);\n       }\n       accounts[order.user].balance += compensateValue;\n       balanceOffset += compensateValue;\n       orders[order_id].compensateValue = compensateValue;\n       orders[order_id].isDone = true;\n   }\n   function requestUpdate(bytes32 order_id) public payable returns(bool){\n        require(msg.value >= 8000000000000000,\"Request fee is 0.008 ether\");\n        Order memory order = orders[order_id];\n        if(status[order.flightNo][order.expectedDepatureDate].checked) {\n            return true;\n        }\n        string memory queryStr = \"json(https://flights.ctrip.com/process/ajax/HistoryPunctuality?FlightNo=\".toSlice()\n        .concat(order.flightNo.toSlice()).toSlice().concat(\").\\\"\".toSlice()).toSlice().concat(order.expectedDepatureDate.toSlice());\n        bytes32 queryId_Est = oraclize_query(\"URL\",\n        queryStr.toSlice().concat(\"\\\".FlightArrtimeReady\".toSlice()),200000);\n        bytes32 queryId_Act = oraclize_query(\"URL\",\n        queryStr.toSlice().concat(\"\\\".FlightArrtime\".toSlice()),200000);\n        callbacks[queryId_Est] = OraclizeCallback(OraclizeState.EstTimeCheck,\"\",\"\",address(0),0,order_id);\n        callbacks[queryId_Act] = OraclizeCallback(OraclizeState.ActTimeCheck,\"\",\"\",address(0),0,order_id);\n        return true;\n   }\n   function __callback(bytes32 myid, string memory result) public {\n          if (msg.sender != oraclize_cbAddress()) revert();\n          //emit LogString(\"debug\",result);\n          OraclizeCallback memory callback = callbacks[myid];\n          if(bytes(result).length == 0) {\n              emit LogFlightStatusUpdate(false,\n              orders[callback.content].flightNo,\n              orders[callback.content].expectedDepatureDate,0,0);\n              return;\n          }\n          if(callback.oState == OraclizeState.CheckValid) {\n              emit LogCheckValid(callback.user,callback.flightNo,result);\n              delete callbacks[myid];\n          }\n          else if(callback.oState == OraclizeState.EstTimeCheck) {\n               Order memory order_est = orders[callback.content];\n               (uint16 year_est,uint8 month_est,uint8 day_est,uint8 hour_est,uint8 minute_est) =\n               DateTime.stringToDateTime(result);\n               uint ts = DateTime.toTimestamp(year_est,month_est,day_est,hour_est,minute_est);\n               FlightStatus storage theStatus = status[order_est.flightNo][order_est.expectedDepatureDate];\n               theStatus.expectedArriveDate = ts;\n               if(theStatus.actArriveDate > 0 || theStatus.isActResultNull) {\n                   if(theStatus.actArriveDate > ts) {\n                       theStatus.delaySeconds = theStatus.actArriveDate - ts;\n                   }\n                   if(theStatus.isActResultNull) {\n                       theStatus.actArriveDate = ts;\n                   }\n                   theStatus.checked = true;\n                   emit LogFlightStatusUpdate(true,order_est.flightNo,\n                   order_est.expectedDepatureDate,theStatus.expectedArriveDate,theStatus.actArriveDate);\n               }\n               delete callbacks[myid];\n          } else if(callback.oState == OraclizeState.ActTimeCheck) {\n               Order memory order_act = orders[callback.content];\n               FlightStatus storage theStatus = status[order_act.flightNo][order_act.expectedDepatureDate];\n               if(result.toSlice().equals(\"null\".toSlice())) {\n                    theStatus.isActResultNull = true;\n               }\n               uint ts = 0;\n               if(!theStatus.isActResultNull) {\n                    (uint16 year_act,uint8 month_act,uint8 day_act,uint8 hour_act,uint8 minute_act) = DateTime.stringToDateTime(result);\n                    uint ts = DateTime.toTimestamp(year_act, month_act, day_act, hour_act, minute_act);\n                    theStatus.actArriveDate = ts;\n               }\n               if(theStatus.expectedArriveDate > 0) {\n                   if(theStatus.expectedArriveDate < ts && !theStatus.isActResultNull) {\n                       theStatus.delaySeconds = ts - theStatus.expectedArriveDate;\n                   }\n                   if(theStatus.isActResultNull) {\n                       theStatus.actArriveDate = theStatus.expectedArriveDate;\n                   }\n                   theStatus.checked = true;\n                   emit LogFlightStatusUpdate(true,order_act.flightNo,\n                                      order_act.expectedDepatureDate,theStatus.expectedArriveDate,theStatus.actArriveDate);\n               }\n               delete callbacks[myid];\n          }\n   }\n}",
  "sourcePath": "/Users/liwei/Desktop/GitRepository/insurance/contracts/FlightTest.sol",
  "compiler": {
    "name": "solc",
    "version": "0.5.0+commit.1d4f565a.Emscripten.clang"
  },
  "schemaVersion": "3.0.2",
  "updatedAt": "2019-03-18T23:33:21.371Z",
  "devdoc": {
    "methods": {}
  },
  "userdoc": {
    "methods": {}
  }
}