{
  "contractName": "Shareholder",
  "abi": [
    {
      "constant": true,
      "inputs": [],
      "name": "totalShareholderToken",
      "outputs": [
        {
          "name": "",
          "type": "uint256"
        }
      ],
      "payable": false,
      "stateMutability": "view",
      "type": "function",
      "signature": "0x0c0d9294"
    },
    {
      "constant": true,
      "inputs": [
        {
          "name": "",
          "type": "uint256"
        }
      ],
      "name": "dividendOps",
      "outputs": [
        {
          "name": "profit",
          "type": "uint256"
        },
        {
          "name": "year",
          "type": "uint256"
        },
        {
          "name": "closeDividendTs",
          "type": "uint256"
        },
        {
          "name": "startTs",
          "type": "uint256"
        },
        {
          "name": "totalToken",
          "type": "uint256"
        }
      ],
      "payable": false,
      "stateMutability": "view",
      "type": "function",
      "signature": "0x0e8ad4a5"
    },
    {
      "constant": true,
      "inputs": [],
      "name": "startTimestamp",
      "outputs": [
        {
          "name": "",
          "type": "uint256"
        }
      ],
      "payable": false,
      "stateMutability": "view",
      "type": "function",
      "signature": "0xe6fd48bc"
    },
    {
      "inputs": [
        {
          "name": "_owner",
          "type": "address"
        }
      ],
      "payable": false,
      "stateMutability": "nonpayable",
      "type": "constructor",
      "signature": "constructor"
    },
    {
      "payable": true,
      "stateMutability": "payable",
      "type": "fallback"
    },
    {
      "anonymous": false,
      "inputs": [
        {
          "indexed": false,
          "name": "addr",
          "type": "address"
        },
        {
          "indexed": false,
          "name": "profitGet",
          "type": "uint256"
        }
      ],
      "name": "LogWithdrawProfit",
      "type": "event",
      "signature": "0xcef411361103cff427c05464422ab11ecdc33a9b249461aa3e1a6d3e87ca8cf7"
    },
    {
      "constant": true,
      "inputs": [],
      "name": "nextPriceTs",
      "outputs": [
        {
          "name": "",
          "type": "uint256"
        }
      ],
      "payable": false,
      "stateMutability": "view",
      "type": "function",
      "signature": "0xe95a245c"
    },
    {
      "constant": true,
      "inputs": [],
      "name": "getCurrentTokenPrice",
      "outputs": [
        {
          "name": "",
          "type": "uint256"
        }
      ],
      "payable": false,
      "stateMutability": "view",
      "type": "function",
      "signature": "0xf751758b"
    },
    {
      "constant": false,
      "inputs": [
        {
          "name": "theShareOwner",
          "type": "address"
        },
        {
          "name": "token",
          "type": "uint256"
        }
      ],
      "name": "buyShareHolder",
      "outputs": [
        {
          "name": "",
          "type": "bool"
        }
      ],
      "payable": false,
      "stateMutability": "nonpayable",
      "type": "function",
      "signature": "0x0a90a839"
    },
    {
      "constant": false,
      "inputs": [
        {
          "name": "from",
          "type": "address"
        },
        {
          "name": "to",
          "type": "address"
        },
        {
          "name": "holder",
          "type": "uint256"
        }
      ],
      "name": "transferShareHolder",
      "outputs": [
        {
          "name": "",
          "type": "bool"
        }
      ],
      "payable": false,
      "stateMutability": "nonpayable",
      "type": "function",
      "signature": "0x17d4962c"
    },
    {
      "constant": false,
      "inputs": [
        {
          "name": "profit",
          "type": "uint256"
        },
        {
          "name": "year",
          "type": "uint256"
        }
      ],
      "name": "dividend",
      "outputs": [
        {
          "name": "",
          "type": "bool"
        }
      ],
      "payable": false,
      "stateMutability": "nonpayable",
      "type": "function",
      "signature": "0x6fe75e8b"
    },
    {
      "constant": true,
      "inputs": [
        {
          "name": "addr",
          "type": "address"
        }
      ],
      "name": "getShareToken",
      "outputs": [
        {
          "name": "",
          "type": "uint256"
        }
      ],
      "payable": false,
      "stateMutability": "view",
      "type": "function",
      "signature": "0x1d9b8009"
    },
    {
      "constant": true,
      "inputs": [
        {
          "name": "year",
          "type": "uint256"
        }
      ],
      "name": "getMyAmtOfShareOfProfit",
      "outputs": [
        {
          "name": "",
          "type": "uint256"
        }
      ],
      "payable": false,
      "stateMutability": "view",
      "type": "function",
      "signature": "0xad58d86d"
    },
    {
      "constant": true,
      "inputs": [
        {
          "name": "year",
          "type": "uint256"
        }
      ],
      "name": "isYearClaimedProfit",
      "outputs": [
        {
          "name": "",
          "type": "bool"
        }
      ],
      "payable": false,
      "stateMutability": "view",
      "type": "function",
      "signature": "0xc5ecd118"
    },
    {
      "constant": false,
      "inputs": [
        {
          "name": "year",
          "type": "uint256"
        }
      ],
      "name": "getMyShareOfProfit",
      "outputs": [
        {
          "name": "",
          "type": "uint256"
        }
      ],
      "payable": false,
      "stateMutability": "nonpayable",
      "type": "function",
      "signature": "0x7dab1683"
    },
    {
      "constant": true,
      "inputs": [],
      "name": "getMyBalance",
      "outputs": [
        {
          "name": "",
          "type": "uint256"
        }
      ],
      "payable": false,
      "stateMutability": "view",
      "type": "function",
      "signature": "0x4c738909"
    },
    {
      "constant": false,
      "inputs": [
        {
          "name": "amount",
          "type": "uint256"
        }
      ],
      "name": "withDraw",
      "outputs": [
        {
          "name": "",
          "type": "bool"
        }
      ],
      "payable": false,
      "stateMutability": "nonpayable",
      "type": "function",
      "signature": "0x14174f33"
    },
    {
      "constant": true,
      "inputs": [],
      "name": "getLastDividendStatus",
      "outputs": [
        {
          "name": "profit",
          "type": "uint256"
        },
        {
          "name": "year",
          "type": "uint256"
        },
        {
          "name": "closeDividendTs",
          "type": "uint256"
        }
      ],
      "payable": false,
      "stateMutability": "view",
      "type": "function",
      "signature": "0x7fc4d88e"
    }
  ],
  "bytecode": "0x608060405234801561001057600080fd5b506040516020806115418339810180604052602081101561003057600080fd5b8101908080519060200190929190505050806000806101000a81548173ffffffffffffffffffffffffffffffffffffffff021916908373ffffffffffffffffffffffffffffffffffffffff16021790555042600281905550506114a9806100986000396000f3fe6080604052600436106100db576000357c0100000000000000000000000000000000000000000000000000000000900463ffffffff1680630a90a839146100dd5780630c0d9294146101505780630e8ad4a51461017b57806314174f33146101e657806317d4962c146102395780631d9b8009146102cc5780634c738909146103315780636fe75e8b1461035c5780637dab1683146103b95780637fc4d88e14610408578063ad58d86d14610441578063c5ecd11814610490578063e6fd48bc146104e3578063e95a245c1461050e578063f751758b14610539575b005b3480156100e957600080fd5b506101366004803603604081101561010057600080fd5b81019080803573ffffffffffffffffffffffffffffffffffffffff16906020019092919080359060200190929190505050610564565b604051808215151515815260200191505060405180910390f35b34801561015c57600080fd5b50610165610761565b6040518082815260200191505060405180910390f35b34801561018757600080fd5b506101b46004803603602081101561019e57600080fd5b8101908080359060200190929190505050610767565b604051808681526020018581526020018481526020018381526020018281526020019550505050505060405180910390f35b3480156101f257600080fd5b5061021f6004803603602081101561020957600080fd5b81019080803590602001909291905050506107ac565b604051808215151515815260200191505060405180910390f35b34801561024557600080fd5b506102b26004803603606081101561025c57600080fd5b81019080803573ffffffffffffffffffffffffffffffffffffffff169060200190929190803573ffffffffffffffffffffffffffffffffffffffff169060200190929190803590602001909291905050506108bc565b604051808215151515815260200191505060405180910390f35b3480156102d857600080fd5b5061031b600480360360208110156102ef57600080fd5b81019080803573ffffffffffffffffffffffffffffffffffffffff169060200190929190505050610bf2565b6040518082815260200191505060405180910390f35b34801561033d57600080fd5b50610346610cde565b6040518082815260200191505060405180910390f35b34801561036857600080fd5b5061039f6004803603604081101561037f57600080fd5b810190808035906020019092919080359060200190929190505050610d25565b604051808215151515815260200191505060405180910390f35b3480156103c557600080fd5b506103f2600480360360208110156103dc57600080fd5b8101908080359060200190929190505050610e63565b6040518082815260200191505060405180910390f35b34801561041457600080fd5b5061041d610f9d565b60405180848152602001838152602001828152602001935050505060405180910390f35b34801561044d57600080fd5b5061047a6004803603602081101561046457600080fd5b810190808035906020019092919050505061105a565b6040518082815260200191505060405180910390f35b34801561049c57600080fd5b506104c9600480360360208110156104b357600080fd5b8101908080359060200190929190505050611365565b604051808215151515815260200191505060405180910390f35b3480156104ef57600080fd5b506104f86113cc565b6040518082815260200191505060405180910390f35b34801561051a57600080fd5b506105236113d2565b6040518082815260200191505060405180910390f35b34801561054557600080fd5b5061054e6113f3565b6040518082815260200191505060405180910390f35b60008060009054906101000a900473ffffffffffffffffffffffffffffffffffffffff1673ffffffffffffffffffffffffffffffffffffffff163373ffffffffffffffffffffffffffffffffffffffff161415156105c157600080fd5b600062ed4e0060025442038115156105d557fe5b0460020a90506104008111156105eb5761040090505b6000655af3107a400082610400860281151561060357fe5b0481151561060d57fe5b049050806001600082825401925050819055506000600660008773ffffffffffffffffffffffffffffffffffffffff1673ffffffffffffffffffffffffffffffffffffffff16815260200190815260200160002090506000818054905014156106cd5780604080519081016040528084815260200142815250908060018154018082558091505090600182039060005260206000209060020201600090919290919091506000820151816000015560208201518160010155505050610754565b60008160018380549050038154811015156106e457fe5b9060005260206000209060020201905081604080519081016040528085846000015401815260200142815250908060018154018082558091505090600182039060005260206000209060020201600090919290919091506000820151816000015560208201518160010155505050505b6001935050505092915050565b60015481565b60058181548110151561077657fe5b90600052602060002090600502016000915090508060000154908060010154908060020154908060030154908060040154905085565b600081600460003373ffffffffffffffffffffffffffffffffffffffff1673ffffffffffffffffffffffffffffffffffffffff16815260200190815260200160002054101580156108145750813073ffffffffffffffffffffffffffffffffffffffff163110155b151561081f57600080fd5b81600460003373ffffffffffffffffffffffffffffffffffffffff1673ffffffffffffffffffffffffffffffffffffffff168152602001908152602001600020600082825403925050819055503373ffffffffffffffffffffffffffffffffffffffff166108fc839081150290604051600060405180830381858888f193505050501580156108b2573d6000803e3d6000fd5b5060019050919050565b60008373ffffffffffffffffffffffffffffffffffffffff163373ffffffffffffffffffffffffffffffffffffffff161415156108f857600080fd5b600073ffffffffffffffffffffffffffffffffffffffff168373ffffffffffffffffffffffffffffffffffffffff161415801561096157508373ffffffffffffffffffffffffffffffffffffffff168373ffffffffffffffffffffffffffffffffffffffff1614155b151561096c57600080fd5b6000600660008673ffffffffffffffffffffffffffffffffffffffff1673ffffffffffffffffffffffffffffffffffffffff16815260200190815260200160002090506000600660008673ffffffffffffffffffffffffffffffffffffffff1673ffffffffffffffffffffffffffffffffffffffff168152602001908152602001600020905060008280549050111515610a0557600080fd5b610a0d611433565b826001848054905003815481101515610a2257fe5b9060005260206000209060020201604080519081016040529081600082015481526020016001820154815250509050600085118015610a65575084816000015110155b1515610a7057600080fd5b82604080519081016040528087846000015101815260200142815250908060018154018082558091505090600182039060005260206000209060020201600090919290919091506000820151816000015560208201518160010155505050600082805490501415610b385781604080519081016040528087815260200142815250908060018154018082558091505090600182039060005260206000209060020201600090919290919091506000820151816000015560208201518160010155505050610be4565b610b40611433565b826001848054905003815481101515610b5557fe5b906000526020600020906002020160408051908101604052908160008201548152602001600182015481525050905082604080519081016040528088846000015101815260200142815250908060018154018082558091505090600182039060005260206000209060020201600090919290919091506000820151816000015560208201518160010155505050505b600193505050509392505050565b60006060600660008473ffffffffffffffffffffffffffffffffffffffff1673ffffffffffffffffffffffffffffffffffffffff168152602001908152602001600020805480602002602001604051908101604052809291908181526020016000905b82821015610c9b57838290600052602060002090600202016040805190810160405290816000820154815260200160018201548152505081526020019060010190610c55565b505050509050600081511415610cb5576000915050610cd9565b806001825103815181101515610cc757fe5b90602001906020020151600001519150505b919050565b6000600460003373ffffffffffffffffffffffffffffffffffffffff1673ffffffffffffffffffffffffffffffffffffffff16815260200190815260200160002054905090565b60008060009054906101000a900473ffffffffffffffffffffffffffffffffffffffff1673ffffffffffffffffffffffffffffffffffffffff163373ffffffffffffffffffffffffffffffffffffffff16141515610d8257600080fd5b60006005805490501480610dbd5750816005600160058054905003815481101515610da957fe5b906000526020600020906005020160010154105b1515610dc857600080fd5b600560a0604051908101604052808581526020018481526020016228de80420181526020014281526020016001548152509080600181540180825580915050906001820390600052602060002090600502016000909192909190915060008201518160000155602082015181600101556040820151816002015560608201518160030155608082015181600401555050506001905092915050565b6000801515600360003373ffffffffffffffffffffffffffffffffffffffff1673ffffffffffffffffffffffffffffffffffffffff168152602001908152602001600020600084815260200190815260200160002060009054906101000a900460ff161515141515610ed457600080fd5b6000610edf8361105a565b90506001600360003373ffffffffffffffffffffffffffffffffffffffff1673ffffffffffffffffffffffffffffffffffffffff168152602001908152602001600020600085815260200190815260200160002060006101000a81548160ff02191690831515021790555080600460003373ffffffffffffffffffffffffffffffffffffffff1673ffffffffffffffffffffffffffffffffffffffff1681526020019081526020016000206000828254019250508190555050919050565b6000806000610faa61144d565b60006005805490501415610fd257600080600082925081915080905093509350935050611055565b6005600160058054905003815481101515610fe957fe5b9060005260206000209060050201600001549350600560016005805490500381548110151561101457fe5b9060005260206000209060050201600101549250600560016005805490500381548110151561103f57fe5b9060005260206000209060050201600201549150505b909192565b600080600090506000809050600080905060008090505b600580549050811015611121578560058281548110151561108e57fe5b9060005260206000209060050201600101541415611114576005818154811015156110b557fe5b90600052602060002090600502016004015493506005818154811015156110d857fe5b90600052602060002090600502016003015492506005818154811015156110fb57fe5b9060005260206000209060050201600001549150611121565b8080600101915050611071565b5060008214806111315750600083145b156111425760009350505050611360565b6060600660003373ffffffffffffffffffffffffffffffffffffffff1673ffffffffffffffffffffffffffffffffffffffff168152602001908152602001600020805480602002602001604051908101604052809291908181526020016000905b828210156111e9578382906000526020600020906002020160408051908101604052908160008201548152602001600182015481525050815260200190600101906111a3565b505050509050600081511415611206576000945050505050611360565b60008090506001825114801561123757508382600081518110151561122757fe5b9060200190602002015160200151105b156112605781600081518110151561124b57fe5b9060200190602002015160000151905061134a565b6000600183510390505b6000811115611348576001835103811480156112a0575084838281518110151561129057fe5b9060200190602002015160200151105b156112c85782818151811015156112b357fe5b90602001906020020151600001519150611348565b8483828151811015156112d757fe5b906020019060200201516020015111801561130f57508483600183038151811015156112ff57fe5b9060200190602002015160200151105b1561133a57826001820381518110151561132557fe5b90602001906020020151600001519150611348565b80806001900391505061126a565b505b8481840281151561135757fe5b04955050505050505b919050565b6000600360003373ffffffffffffffffffffffffffffffffffffffff1673ffffffffffffffffffffffffffffffffffffffff168152602001908152602001600020600083815260200190815260200160002060009054906101000a900460ff169050919050565b60025481565b600062ed4e0060025442038115156113e657fe5b0662ed4e00034201905090565b60008062ed4e00600254420381151561140857fe5b0460020a905061040081111561141e5761040090505b80629c400081151561142c57fe5b0491505090565b604080519081016040528060008152602001600081525090565b60a0604051908101604052806000815260200160008152602001600081526020016000815260200160008152509056fea165627a7a723058200b532dd728b3a0093d18bd5d0c0af5d3fb0cf04262b7a81548a7695e6d1fe5fd0029",
  "source": "pragma solidity ^0.5.0;\ncontract Shareholder {\n   address payable owner;\n   uint public totalShareholderToken;\n   uint public startTimestamp;\n   event LogWithdrawProfit(address addr,uint profitGet);\n   struct DividendOp {\n        uint profit;\n        uint year;\n        uint closeDividendTs;\n        uint startTs;\n        uint totalToken;\n   }\n   struct ShareholderSnapShot{\n       uint myToken;\n       uint timestamp;\n   }\n   mapping(address=>mapping(uint=>bool)) shareholderClaimHistory;\n   mapping (address=>uint) balances;\n   DividendOp[] public dividendOps;\n   mapping (address=>ShareholderSnapShot[]) shareholderChangingHist;\n   constructor(address payable _owner) public{\n       owner = _owner;\n       startTimestamp = now;\n   }\n   function () external payable{\n   }\n   function nextPriceTs() public view returns(uint) {\n       return now + (15552000 - (now - startTimestamp) % 15552000);\n   }\n   function getCurrentTokenPrice() public view returns(uint) {\n      uint rate = 2 ** ((now - startTimestamp) / 15552000);\n      if(rate > 1024) {\n           rate = 1024;\n      }\n      return 10240000 / rate;\n   }\n   function buyShareHolder(address theShareOwner,uint token) external returns(bool){\n       require(msg.sender == owner);\n       uint rate = 2 ** ((now - startTimestamp) / 15552000);\n       if(rate > 1024) {\n            rate = 1024;\n       }\n       uint holder = token * 1024/rate/100000000000000;\n       totalShareholderToken += holder;\n       ShareholderSnapShot[] storage snap = shareholderChangingHist[theShareOwner];\n       if(snap.length == 0){\n           snap.push(ShareholderSnapShot({myToken:holder,timestamp:now}));\n       } else {\n          ShareholderSnapShot storage last = snap[snap.length - 1];\n          snap.push(ShareholderSnapShot({myToken:last.myToken + holder,timestamp:now}));\n       }\n       return true;\n   }\n   function transferShareHolder(address from,address to,uint holder) external returns(bool) {\n        require(msg.sender == from);\n        require(to != address(0) && to != from);\n        ShareholderSnapShot[] storage snapFrom = shareholderChangingHist[from];\n        ShareholderSnapShot[] storage snapTo = shareholderChangingHist[to];\n        require(snapFrom.length > 0);\n        ShareholderSnapShot memory lastOfFrom = snapFrom[snapFrom.length - 1];\n        require(holder > 0 && lastOfFrom.myToken >= holder);\n        snapFrom.push(ShareholderSnapShot({myToken:lastOfFrom.myToken + holder,timestamp:now}));\n        if(snapTo.length == 0) {\n            snapTo.push(ShareholderSnapShot({myToken:holder,timestamp:now}));\n        } else {\n            ShareholderSnapShot memory lastOfTo = snapTo[snapTo.length - 1];\n            snapTo.push(ShareholderSnapShot({myToken:lastOfTo.myToken + holder,timestamp:now}));\n        }\n        return true;\n   }\n   function dividend(uint profit,uint year) external returns(bool){\n        require(msg.sender == owner);\n        require(dividendOps.length == 0 || dividendOps[dividendOps.length - 1].year < year);\n        dividendOps.push(DividendOp({year:year,closeDividendTs:now + 2678400,profit:profit,startTs:now,\n        totalToken:totalShareholderToken}));\n        return true;\n   }\n   function getShareToken(address addr) external view returns(uint){\n        ShareholderSnapShot[] memory snap = shareholderChangingHist[addr];\n        if(snap.length == 0) {\n            return 0;\n        } else {\n            return snap[snap.length - 1].myToken;\n        }\n   }\n   function getMyAmtOfShareOfProfit(uint year) public view returns(uint) {\n           uint totalToken = 0;\n           uint timestamp = 0;\n           uint profit = 0;\n           for(uint i = 0; i < dividendOps.length; i ++){\n               if(dividendOps[i].year == year) {\n                   totalToken = dividendOps[i].totalToken;\n                   timestamp = dividendOps[i].startTs;\n                   profit = dividendOps[i].profit;\n                   break;\n               }\n           }\n           if(timestamp == 0 || totalToken == 0)\n               return 0;\n           ShareholderSnapShot[] memory snap = shareholderChangingHist[msg.sender];\n           if(snap.length == 0) {\n               return 0;\n           }\n           uint myToken = 0;\n           if(snap.length == 1 && snap[0].timestamp < timestamp) {\n               myToken = snap[0].myToken;\n           } else {\n               for(uint i = snap.length - 1; i > 0; i --){\n                   if(i == snap.length - 1 && snap[i].timestamp < timestamp) {\n                        myToken = snap[i].myToken;\n                        break;\n                   }\n                   if(snap[i].timestamp > timestamp && snap[i - 1].timestamp < timestamp) {\n                        myToken = snap[i - 1].myToken;\n                        break;\n                   }\n               }\n           }\n           return profit * myToken / totalToken;\n      }\n   function isYearClaimedProfit(uint year) public view returns(bool) {\n       return shareholderClaimHistory[msg.sender][year];\n   }\n   function getMyShareOfProfit(uint year) public returns(uint) {\n       require(shareholderClaimHistory[msg.sender][year] == false);\n       uint myShareOfProfit = getMyAmtOfShareOfProfit(year);\n       shareholderClaimHistory[msg.sender][year] = true;\n       balances[msg.sender] += myShareOfProfit;\n   }\n   function getMyBalance() public view returns(uint){\n       return balances[msg.sender];\n   }\n   function withDraw(uint amount) public returns(bool) {\n       require(balances[msg.sender] >= amount && address(this).balance >= amount);\n       balances[msg.sender] -= amount;\n       msg.sender.transfer(amount);\n       return true;\n   }\n   function getLastDividendStatus() public view returns(uint profit,\n                                                       uint year,\n                                                       uint closeDividendTs){\n           DividendOp memory dividendOp;\n           if(dividendOps.length == 0) {\n                return(0,0,0);\n           }\n           profit = dividendOps[dividendOps.length - 1].profit;\n           year = dividendOps[dividendOps.length - 1].year;\n           closeDividendTs = dividendOps[dividendOps.length - 1].closeDividendTs;\n   }\n}",
  "sourcePath": "/Users/liwei/Desktop/GitRepository/insurance/contracts/Shareholder.sol",
  "compiler": {
    "name": "solc",
    "version": "0.5.0+commit.1d4f565a.Emscripten.clang"
  },
  "schemaVersion": "3.0.2",
  "updatedAt": "2019-04-12T20:46:09.552Z",
  "devdoc": {
    "methods": {}
  },
  "userdoc": {
    "methods": {}
  }
}